{
	"FunctionIntro.sol": {
		"FunctionIntro": {
			"abi": [
				{
					"inputs": [
						{
							"internalType": "uint8",
							"name": "x",
							"type": "uint8"
						},
						{
							"internalType": "uint8",
							"name": "y",
							"type": "uint8"
						}
					],
					"name": "add",
					"outputs": [
						{
							"internalType": "uint256",
							"name": "",
							"type": "uint256"
						}
					],
					"stateMutability": "pure",
					"type": "function"
				},
				{
					"inputs": [
						{
							"internalType": "uint8",
							"name": "x",
							"type": "uint8"
						},
						{
							"internalType": "uint8",
							"name": "y",
							"type": "uint8"
						}
					],
					"name": "sub",
					"outputs": [
						{
							"internalType": "uint256",
							"name": "",
							"type": "uint256"
						}
					],
					"stateMutability": "pure",
					"type": "function"
				}
			],
			"devdoc": {
				"kind": "dev",
				"methods": {},
				"version": 1
			},
			"evm": {
				"assembly": "    /* \"FunctionIntro.sol\":60:285  contract FunctionIntro{\r... */\n  mstore(0x40, 0x80)\n  callvalue\n  dup1\n  iszero\n  tag_1\n  jumpi\n  0x00\n  dup1\n  revert\ntag_1:\n  pop\n  dataSize(sub_0)\n  dup1\n  dataOffset(sub_0)\n  0x00\n  codecopy\n  0x00\n  return\nstop\n\nsub_0: assembly {\n        /* \"FunctionIntro.sol\":60:285  contract FunctionIntro{\r... */\n      mstore(0x40, 0x80)\n      callvalue\n      dup1\n      iszero\n      tag_1\n      jumpi\n      0x00\n      dup1\n      revert\n    tag_1:\n      pop\n      jumpi(tag_2, lt(calldatasize, 0x04))\n      shr(0xe0, calldataload(0x00))\n      dup1\n      0x1e5f34af\n      eq\n      tag_3\n      jumpi\n      dup1\n      0xbb4e3f4d\n      eq\n      tag_4\n      jumpi\n    tag_2:\n      0x00\n      dup1\n      revert\n        /* \"FunctionIntro.sol\":191:282  function sub(uint8 x , uint8 y) external pure returns(uint) {\r... */\n    tag_3:\n      tag_5\n      0x04\n      dup1\n      calldatasize\n      sub\n      dup2\n      add\n      swap1\n      tag_6\n      swap2\n      swap1\n      tag_7\n      jump\t// in\n    tag_6:\n      tag_8\n      jump\t// in\n    tag_5:\n      mload(0x40)\n      tag_9\n      swap2\n      swap1\n      tag_10\n      jump\t// in\n    tag_9:\n      mload(0x40)\n      dup1\n      swap2\n      sub\n      swap1\n      return\n        /* \"FunctionIntro.sol\":91:183  function add(uint8 x , uint8 y) external pure returns(uint) {\r... */\n    tag_4:\n      tag_11\n      0x04\n      dup1\n      calldatasize\n      sub\n      dup2\n      add\n      swap1\n      tag_12\n      swap2\n      swap1\n      tag_7\n      jump\t// in\n    tag_12:\n      tag_13\n      jump\t// in\n    tag_11:\n      mload(0x40)\n      tag_14\n      swap2\n      swap1\n      tag_10\n      jump\t// in\n    tag_14:\n      mload(0x40)\n      dup1\n      swap2\n      sub\n      swap1\n      return\n        /* \"FunctionIntro.sol\":191:282  function sub(uint8 x , uint8 y) external pure returns(uint) {\r... */\n    tag_8:\n        /* \"FunctionIntro.sol\":245:249  uint */\n      0x00\n        /* \"FunctionIntro.sol\":273:274  y */\n      dup2\n        /* \"FunctionIntro.sol\":269:270  x */\n      dup4\n        /* \"FunctionIntro.sol\":269:274  x - y */\n      tag_16\n      swap2\n      swap1\n      tag_17\n      jump\t// in\n    tag_16:\n        /* \"FunctionIntro.sol\":262:274  return x - y */\n      0xff\n      and\n      swap1\n      pop\n        /* \"FunctionIntro.sol\":191:282  function sub(uint8 x , uint8 y) external pure returns(uint) {\r... */\n      swap3\n      swap2\n      pop\n      pop\n      jump\t// out\n        /* \"FunctionIntro.sol\":91:183  function add(uint8 x , uint8 y) external pure returns(uint) {\r... */\n    tag_13:\n        /* \"FunctionIntro.sol\":145:149  uint */\n      0x00\n        /* \"FunctionIntro.sol\":173:174  y */\n      dup2\n        /* \"FunctionIntro.sol\":169:170  x */\n      dup4\n        /* \"FunctionIntro.sol\":169:174  x + y */\n      tag_19\n      swap2\n      swap1\n      tag_20\n      jump\t// in\n    tag_19:\n        /* \"FunctionIntro.sol\":162:174  return x + y */\n      0xff\n      and\n      swap1\n      pop\n        /* \"FunctionIntro.sol\":91:183  function add(uint8 x , uint8 y) external pure returns(uint) {\r... */\n      swap3\n      swap2\n      pop\n      pop\n      jump\t// out\n        /* \"#utility.yul\":7:142   */\n    tag_22:\n        /* \"#utility.yul\":51:56   */\n      0x00\n        /* \"#utility.yul\":89:95   */\n      dup2\n        /* \"#utility.yul\":76:96   */\n      calldataload\n        /* \"#utility.yul\":67:96   */\n      swap1\n      pop\n        /* \"#utility.yul\":105:136   */\n      tag_24\n        /* \"#utility.yul\":130:135   */\n      dup2\n        /* \"#utility.yul\":105:136   */\n      tag_25\n      jump\t// in\n    tag_24:\n        /* \"#utility.yul\":7:142   */\n      swap3\n      swap2\n      pop\n      pop\n      jump\t// out\n        /* \"#utility.yul\":148:614   */\n    tag_7:\n        /* \"#utility.yul\":212:218   */\n      0x00\n        /* \"#utility.yul\":220:226   */\n      dup1\n        /* \"#utility.yul\":269:271   */\n      0x40\n        /* \"#utility.yul\":257:266   */\n      dup4\n        /* \"#utility.yul\":248:255   */\n      dup6\n        /* \"#utility.yul\":244:267   */\n      sub\n        /* \"#utility.yul\":240:272   */\n      slt\n        /* \"#utility.yul\":237:356   */\n      iszero\n      tag_27\n      jumpi\n        /* \"#utility.yul\":275:354   */\n      tag_28\n      tag_29\n      jump\t// in\n    tag_28:\n        /* \"#utility.yul\":237:356   */\n    tag_27:\n        /* \"#utility.yul\":395:396   */\n      0x00\n        /* \"#utility.yul\":420:471   */\n      tag_30\n        /* \"#utility.yul\":463:470   */\n      dup6\n        /* \"#utility.yul\":454:460   */\n      dup3\n        /* \"#utility.yul\":443:452   */\n      dup7\n        /* \"#utility.yul\":439:461   */\n      add\n        /* \"#utility.yul\":420:471   */\n      tag_22\n      jump\t// in\n    tag_30:\n        /* \"#utility.yul\":410:471   */\n      swap3\n      pop\n        /* \"#utility.yul\":366:481   */\n      pop\n        /* \"#utility.yul\":520:522   */\n      0x20\n        /* \"#utility.yul\":546:597   */\n      tag_31\n        /* \"#utility.yul\":589:596   */\n      dup6\n        /* \"#utility.yul\":580:586   */\n      dup3\n        /* \"#utility.yul\":569:578   */\n      dup7\n        /* \"#utility.yul\":565:587   */\n      add\n        /* \"#utility.yul\":546:597   */\n      tag_22\n      jump\t// in\n    tag_31:\n        /* \"#utility.yul\":536:597   */\n      swap2\n      pop\n        /* \"#utility.yul\":491:607   */\n      pop\n        /* \"#utility.yul\":148:614   */\n      swap3\n      pop\n      swap3\n      swap1\n      pop\n      jump\t// out\n        /* \"#utility.yul\":620:738   */\n    tag_32:\n        /* \"#utility.yul\":707:731   */\n      tag_34\n        /* \"#utility.yul\":725:730   */\n      dup2\n        /* \"#utility.yul\":707:731   */\n      tag_35\n      jump\t// in\n    tag_34:\n        /* \"#utility.yul\":702:705   */\n      dup3\n        /* \"#utility.yul\":695:732   */\n      mstore\n        /* \"#utility.yul\":620:738   */\n      pop\n      pop\n      jump\t// out\n        /* \"#utility.yul\":744:966   */\n    tag_10:\n        /* \"#utility.yul\":837:841   */\n      0x00\n        /* \"#utility.yul\":875:877   */\n      0x20\n        /* \"#utility.yul\":864:873   */\n      dup3\n        /* \"#utility.yul\":860:878   */\n      add\n        /* \"#utility.yul\":852:878   */\n      swap1\n      pop\n        /* \"#utility.yul\":888:959   */\n      tag_37\n        /* \"#utility.yul\":956:957   */\n      0x00\n        /* \"#utility.yul\":945:954   */\n      dup4\n        /* \"#utility.yul\":941:958   */\n      add\n        /* \"#utility.yul\":932:938   */\n      dup5\n        /* \"#utility.yul\":888:959   */\n      tag_32\n      jump\t// in\n    tag_37:\n        /* \"#utility.yul\":744:966   */\n      swap3\n      swap2\n      pop\n      pop\n      jump\t// out\n        /* \"#utility.yul\":1053:1290   */\n    tag_20:\n        /* \"#utility.yul\":1091:1094   */\n      0x00\n        /* \"#utility.yul\":1110:1128   */\n      tag_41\n        /* \"#utility.yul\":1126:1127   */\n      dup3\n        /* \"#utility.yul\":1110:1128   */\n      tag_42\n      jump\t// in\n    tag_41:\n        /* \"#utility.yul\":1105:1128   */\n      swap2\n      pop\n        /* \"#utility.yul\":1142:1160   */\n      tag_43\n        /* \"#utility.yul\":1158:1159   */\n      dup4\n        /* \"#utility.yul\":1142:1160   */\n      tag_42\n      jump\t// in\n    tag_43:\n        /* \"#utility.yul\":1137:1160   */\n      swap3\n      pop\n        /* \"#utility.yul\":1232:1233   */\n      dup3\n        /* \"#utility.yul\":1226:1230   */\n      0xff\n        /* \"#utility.yul\":1222:1234   */\n      sub\n        /* \"#utility.yul\":1219:1220   */\n      dup3\n        /* \"#utility.yul\":1216:1235   */\n      gt\n        /* \"#utility.yul\":1213:1258   */\n      iszero\n      tag_44\n      jumpi\n        /* \"#utility.yul\":1238:1256   */\n      tag_45\n      tag_46\n      jump\t// in\n    tag_45:\n        /* \"#utility.yul\":1213:1258   */\n    tag_44:\n        /* \"#utility.yul\":1282:1283   */\n      dup3\n        /* \"#utility.yul\":1279:1280   */\n      dup3\n        /* \"#utility.yul\":1275:1284   */\n      add\n        /* \"#utility.yul\":1268:1284   */\n      swap1\n      pop\n        /* \"#utility.yul\":1053:1290   */\n      swap3\n      swap2\n      pop\n      pop\n      jump\t// out\n        /* \"#utility.yul\":1296:1481   */\n    tag_17:\n        /* \"#utility.yul\":1334:1338   */\n      0x00\n        /* \"#utility.yul\":1354:1372   */\n      tag_48\n        /* \"#utility.yul\":1370:1371   */\n      dup3\n        /* \"#utility.yul\":1354:1372   */\n      tag_42\n      jump\t// in\n    tag_48:\n        /* \"#utility.yul\":1349:1372   */\n      swap2\n      pop\n        /* \"#utility.yul\":1386:1404   */\n      tag_49\n        /* \"#utility.yul\":1402:1403   */\n      dup4\n        /* \"#utility.yul\":1386:1404   */\n      tag_42\n      jump\t// in\n    tag_49:\n        /* \"#utility.yul\":1381:1404   */\n      swap3\n      pop\n        /* \"#utility.yul\":1423:1424   */\n      dup3\n        /* \"#utility.yul\":1420:1421   */\n      dup3\n        /* \"#utility.yul\":1417:1425   */\n      lt\n        /* \"#utility.yul\":1414:1448   */\n      iszero\n      tag_50\n      jumpi\n        /* \"#utility.yul\":1428:1446   */\n      tag_51\n      tag_46\n      jump\t// in\n    tag_51:\n        /* \"#utility.yul\":1414:1448   */\n    tag_50:\n        /* \"#utility.yul\":1473:1474   */\n      dup3\n        /* \"#utility.yul\":1470:1471   */\n      dup3\n        /* \"#utility.yul\":1466:1475   */\n      sub\n        /* \"#utility.yul\":1458:1475   */\n      swap1\n      pop\n        /* \"#utility.yul\":1296:1481   */\n      swap3\n      swap2\n      pop\n      pop\n      jump\t// out\n        /* \"#utility.yul\":1487:1564   */\n    tag_35:\n        /* \"#utility.yul\":1524:1531   */\n      0x00\n        /* \"#utility.yul\":1553:1558   */\n      dup2\n        /* \"#utility.yul\":1542:1558   */\n      swap1\n      pop\n        /* \"#utility.yul\":1487:1564   */\n      swap2\n      swap1\n      pop\n      jump\t// out\n        /* \"#utility.yul\":1570:1656   */\n    tag_42:\n        /* \"#utility.yul\":1605:1612   */\n      0x00\n        /* \"#utility.yul\":1645:1649   */\n      0xff\n        /* \"#utility.yul\":1638:1643   */\n      dup3\n        /* \"#utility.yul\":1634:1650   */\n      and\n        /* \"#utility.yul\":1623:1650   */\n      swap1\n      pop\n        /* \"#utility.yul\":1570:1656   */\n      swap2\n      swap1\n      pop\n      jump\t// out\n        /* \"#utility.yul\":1662:1842   */\n    tag_46:\n        /* \"#utility.yul\":1710:1787   */\n      0x4e487b7100000000000000000000000000000000000000000000000000000000\n        /* \"#utility.yul\":1707:1708   */\n      0x00\n        /* \"#utility.yul\":1700:1788   */\n      mstore\n        /* \"#utility.yul\":1807:1811   */\n      0x11\n        /* \"#utility.yul\":1804:1805   */\n      0x04\n        /* \"#utility.yul\":1797:1812   */\n      mstore\n        /* \"#utility.yul\":1831:1835   */\n      0x24\n        /* \"#utility.yul\":1828:1829   */\n      0x00\n        /* \"#utility.yul\":1821:1836   */\n      revert\n        /* \"#utility.yul\":1971:2088   */\n    tag_29:\n        /* \"#utility.yul\":2080:2081   */\n      0x00\n        /* \"#utility.yul\":2077:2078   */\n      dup1\n        /* \"#utility.yul\":2070:2082   */\n      revert\n        /* \"#utility.yul\":2094:2212   */\n    tag_25:\n        /* \"#utility.yul\":2165:2187   */\n      tag_59\n        /* \"#utility.yul\":2181:2186   */\n      dup2\n        /* \"#utility.yul\":2165:2187   */\n      tag_42\n      jump\t// in\n    tag_59:\n        /* \"#utility.yul\":2158:2163   */\n      dup2\n        /* \"#utility.yul\":2155:2188   */\n      eq\n        /* \"#utility.yul\":2145:2206   */\n      tag_60\n      jumpi\n        /* \"#utility.yul\":2202:2203   */\n      0x00\n        /* \"#utility.yul\":2199:2200   */\n      dup1\n        /* \"#utility.yul\":2192:2204   */\n      revert\n        /* \"#utility.yul\":2145:2206   */\n    tag_60:\n        /* \"#utility.yul\":2094:2212   */\n      pop\n      jump\t// out\n\n    auxdata: 0xa2646970667358221220b206f583a551c8b2a0fd23b7b38eea07be3c465f54a17c31eb0f76d2cfee9e2864736f6c63430008070033\n}\n",
				"bytecode": {
					"linkReferences": {},
					"object": "608060405234801561001057600080fd5b5061024f806100206000396000f3fe608060405234801561001057600080fd5b50600436106100365760003560e01c80631e5f34af1461003b578063bb4e3f4d1461006b575b600080fd5b610055600480360381019061005091906100e2565b61009b565b6040516100629190610131565b60405180910390f35b610085600480360381019061008091906100e2565b6100b4565b6040516100929190610131565b60405180910390f35b600081836100a99190610183565b60ff16905092915050565b600081836100c2919061014c565b60ff16905092915050565b6000813590506100dc81610202565b92915050565b600080604083850312156100f9576100f86101fd565b5b6000610107858286016100cd565b9250506020610118858286016100cd565b9150509250929050565b61012b816101b7565b82525050565b60006020820190506101466000830184610122565b92915050565b6000610157826101c1565b9150610162836101c1565b92508260ff03821115610178576101776101ce565b5b828201905092915050565b600061018e826101c1565b9150610199836101c1565b9250828210156101ac576101ab6101ce565b5b828203905092915050565b6000819050919050565b600060ff82169050919050565b7f4e487b7100000000000000000000000000000000000000000000000000000000600052601160045260246000fd5b600080fd5b61020b816101c1565b811461021657600080fd5b5056fea2646970667358221220b206f583a551c8b2a0fd23b7b38eea07be3c465f54a17c31eb0f76d2cfee9e2864736f6c63430008070033",
					"opcodes": "PUSH1 0x80 PUSH1 0x40 MSTORE CALLVALUE DUP1 ISZERO PUSH2 0x10 JUMPI PUSH1 0x0 DUP1 REVERT JUMPDEST POP PUSH2 0x24F DUP1 PUSH2 0x20 PUSH1 0x0 CODECOPY PUSH1 0x0 RETURN INVALID PUSH1 0x80 PUSH1 0x40 MSTORE CALLVALUE DUP1 ISZERO PUSH2 0x10 JUMPI PUSH1 0x0 DUP1 REVERT JUMPDEST POP PUSH1 0x4 CALLDATASIZE LT PUSH2 0x36 JUMPI PUSH1 0x0 CALLDATALOAD PUSH1 0xE0 SHR DUP1 PUSH4 0x1E5F34AF EQ PUSH2 0x3B JUMPI DUP1 PUSH4 0xBB4E3F4D EQ PUSH2 0x6B JUMPI JUMPDEST PUSH1 0x0 DUP1 REVERT JUMPDEST PUSH2 0x55 PUSH1 0x4 DUP1 CALLDATASIZE SUB DUP2 ADD SWAP1 PUSH2 0x50 SWAP2 SWAP1 PUSH2 0xE2 JUMP JUMPDEST PUSH2 0x9B JUMP JUMPDEST PUSH1 0x40 MLOAD PUSH2 0x62 SWAP2 SWAP1 PUSH2 0x131 JUMP JUMPDEST PUSH1 0x40 MLOAD DUP1 SWAP2 SUB SWAP1 RETURN JUMPDEST PUSH2 0x85 PUSH1 0x4 DUP1 CALLDATASIZE SUB DUP2 ADD SWAP1 PUSH2 0x80 SWAP2 SWAP1 PUSH2 0xE2 JUMP JUMPDEST PUSH2 0xB4 JUMP JUMPDEST PUSH1 0x40 MLOAD PUSH2 0x92 SWAP2 SWAP1 PUSH2 0x131 JUMP JUMPDEST PUSH1 0x40 MLOAD DUP1 SWAP2 SUB SWAP1 RETURN JUMPDEST PUSH1 0x0 DUP2 DUP4 PUSH2 0xA9 SWAP2 SWAP1 PUSH2 0x183 JUMP JUMPDEST PUSH1 0xFF AND SWAP1 POP SWAP3 SWAP2 POP POP JUMP JUMPDEST PUSH1 0x0 DUP2 DUP4 PUSH2 0xC2 SWAP2 SWAP1 PUSH2 0x14C JUMP JUMPDEST PUSH1 0xFF AND SWAP1 POP SWAP3 SWAP2 POP POP JUMP JUMPDEST PUSH1 0x0 DUP2 CALLDATALOAD SWAP1 POP PUSH2 0xDC DUP2 PUSH2 0x202 JUMP JUMPDEST SWAP3 SWAP2 POP POP JUMP JUMPDEST PUSH1 0x0 DUP1 PUSH1 0x40 DUP4 DUP6 SUB SLT ISZERO PUSH2 0xF9 JUMPI PUSH2 0xF8 PUSH2 0x1FD JUMP JUMPDEST JUMPDEST PUSH1 0x0 PUSH2 0x107 DUP6 DUP3 DUP7 ADD PUSH2 0xCD JUMP JUMPDEST SWAP3 POP POP PUSH1 0x20 PUSH2 0x118 DUP6 DUP3 DUP7 ADD PUSH2 0xCD JUMP JUMPDEST SWAP2 POP POP SWAP3 POP SWAP3 SWAP1 POP JUMP JUMPDEST PUSH2 0x12B DUP2 PUSH2 0x1B7 JUMP JUMPDEST DUP3 MSTORE POP POP JUMP JUMPDEST PUSH1 0x0 PUSH1 0x20 DUP3 ADD SWAP1 POP PUSH2 0x146 PUSH1 0x0 DUP4 ADD DUP5 PUSH2 0x122 JUMP JUMPDEST SWAP3 SWAP2 POP POP JUMP JUMPDEST PUSH1 0x0 PUSH2 0x157 DUP3 PUSH2 0x1C1 JUMP JUMPDEST SWAP2 POP PUSH2 0x162 DUP4 PUSH2 0x1C1 JUMP JUMPDEST SWAP3 POP DUP3 PUSH1 0xFF SUB DUP3 GT ISZERO PUSH2 0x178 JUMPI PUSH2 0x177 PUSH2 0x1CE JUMP JUMPDEST JUMPDEST DUP3 DUP3 ADD SWAP1 POP SWAP3 SWAP2 POP POP JUMP JUMPDEST PUSH1 0x0 PUSH2 0x18E DUP3 PUSH2 0x1C1 JUMP JUMPDEST SWAP2 POP PUSH2 0x199 DUP4 PUSH2 0x1C1 JUMP JUMPDEST SWAP3 POP DUP3 DUP3 LT ISZERO PUSH2 0x1AC JUMPI PUSH2 0x1AB PUSH2 0x1CE JUMP JUMPDEST JUMPDEST DUP3 DUP3 SUB SWAP1 POP SWAP3 SWAP2 POP POP JUMP JUMPDEST PUSH1 0x0 DUP2 SWAP1 POP SWAP2 SWAP1 POP JUMP JUMPDEST PUSH1 0x0 PUSH1 0xFF DUP3 AND SWAP1 POP SWAP2 SWAP1 POP JUMP JUMPDEST PUSH32 0x4E487B7100000000000000000000000000000000000000000000000000000000 PUSH1 0x0 MSTORE PUSH1 0x11 PUSH1 0x4 MSTORE PUSH1 0x24 PUSH1 0x0 REVERT JUMPDEST PUSH1 0x0 DUP1 REVERT JUMPDEST PUSH2 0x20B DUP2 PUSH2 0x1C1 JUMP JUMPDEST DUP2 EQ PUSH2 0x216 JUMPI PUSH1 0x0 DUP1 REVERT JUMPDEST POP JUMP INVALID LOG2 PUSH5 0x6970667358 0x22 SLT KECCAK256 0xB2 MOD CREATE2 DUP4 0xA5 MLOAD 0xC8 0xB2 LOG0 REVERT 0x23 0xB7 0xB3 DUP15 0xEA SMOD 0xBE EXTCODECOPY CHAINID 0x5F SLOAD LOG1 PUSH29 0x31EB0F76D2CFEE9E2864736F6C63430008070033000000000000000000 "
				},
				"gasEstimates": {
					"creation": {
						"codeDepositCost": "118200",
						"executionCost": "165",
						"totalCost": "118365"
					},
					"external": {
						"add(uint8,uint8)": "infinite",
						"sub(uint8,uint8)": "infinite"
					}
				},
				"methodIdentifiers": {
					"add(uint8,uint8)": "bb4e3f4d",
					"sub(uint8,uint8)": "1e5f34af"
				}
			},
			"storageLayout": {
				"storage": [],
				"types": null
			},
			"userdoc": {
				"kind": "user",
				"methods": {},
				"version": 1
			}
		}
	}
}