{
	"FunctionModifer.sol": {
		"FunctionModifer": {
			"abi": [
				{
					"inputs": [
						{
							"internalType": "bool",
							"name": "_onOff",
							"type": "bool"
						}
					],
					"name": "changeOnOff",
					"outputs": [],
					"stateMutability": "nonpayable",
					"type": "function"
				},
				{
					"inputs": [],
					"name": "checkOnOff",
					"outputs": [],
					"stateMutability": "view",
					"type": "function"
				},
				{
					"inputs": [],
					"name": "count",
					"outputs": [
						{
							"internalType": "uint256",
							"name": "",
							"type": "uint256"
						}
					],
					"stateMutability": "view",
					"type": "function"
				},
				{
					"inputs": [],
					"name": "dec",
					"outputs": [
						{
							"internalType": "uint256",
							"name": "",
							"type": "uint256"
						}
					],
					"stateMutability": "nonpayable",
					"type": "function"
				},
				{
					"inputs": [],
					"name": "dec2",
					"outputs": [],
					"stateMutability": "nonpayable",
					"type": "function"
				},
				{
					"inputs": [],
					"name": "inc",
					"outputs": [
						{
							"internalType": "uint256",
							"name": "",
							"type": "uint256"
						}
					],
					"stateMutability": "nonpayable",
					"type": "function"
				},
				{
					"inputs": [],
					"name": "inc2",
					"outputs": [],
					"stateMutability": "nonpayable",
					"type": "function"
				},
				{
					"inputs": [],
					"name": "onOff",
					"outputs": [
						{
							"internalType": "bool",
							"name": "",
							"type": "bool"
						}
					],
					"stateMutability": "view",
					"type": "function"
				},
				{
					"inputs": [],
					"name": "testRound",
					"outputs": [],
					"stateMutability": "nonpayable",
					"type": "function"
				}
			],
			"devdoc": {
				"kind": "dev",
				"methods": {},
				"version": 1
			},
			"evm": {
				"assembly": "    /* \"FunctionModifer.sol\":60:1504  contract FunctionModifer{\r... */\n  mstore(0x40, 0x80)\n  callvalue\n  dup1\n  iszero\n  tag_1\n  jumpi\n  0x00\n  dup1\n  revert\ntag_1:\n  pop\n  dataSize(sub_0)\n  dup1\n  dataOffset(sub_0)\n  0x00\n  codecopy\n  0x00\n  return\nstop\n\nsub_0: assembly {\n        /* \"FunctionModifer.sol\":60:1504  contract FunctionModifer{\r... */\n      mstore(0x40, 0x80)\n      callvalue\n      dup1\n      iszero\n      tag_1\n      jumpi\n      0x00\n      dup1\n      revert\n    tag_1:\n      pop\n      jumpi(tag_2, lt(calldatasize, 0x04))\n      shr(0xe0, calldataload(0x00))\n      dup1\n      0x6e4a7f87\n      gt\n      tag_12\n      jumpi\n      dup1\n      0x6e4a7f87\n      eq\n      tag_7\n      jumpi\n      dup1\n      0x71c9f31c\n      eq\n      tag_8\n      jumpi\n      dup1\n      0x7cf1e1ee\n      eq\n      tag_9\n      jumpi\n      dup1\n      0x9ddc4e67\n      eq\n      tag_10\n      jumpi\n      dup1\n      0xb3bcfa82\n      eq\n      tag_11\n      jumpi\n      jump(tag_2)\n    tag_12:\n      dup1\n      0x06661abd\n      eq\n      tag_3\n      jumpi\n      dup1\n      0x128dbf56\n      eq\n      tag_4\n      jumpi\n      dup1\n      0x371303c0\n      eq\n      tag_5\n      jumpi\n      dup1\n      0x552350aa\n      eq\n      tag_6\n      jumpi\n    tag_2:\n      0x00\n      dup1\n      revert\n        /* \"FunctionModifer.sol\":93:110  uint public count */\n    tag_3:\n      tag_13\n      tag_14\n      jump\t// in\n    tag_13:\n      mload(0x40)\n      tag_15\n      swap2\n      swap1\n      tag_16\n      jump\t// in\n    tag_15:\n      mload(0x40)\n      dup1\n      swap2\n      sub\n      swap1\n      return\n        /* \"FunctionModifer.sol\":1413:1501  function testRound() public round{\r... */\n    tag_4:\n      tag_17\n      tag_18\n      jump\t// in\n    tag_17:\n      stop\n        /* \"FunctionModifer.sol\":382:571  function inc() external returns(uint){\r... */\n    tag_5:\n      tag_19\n      tag_20\n      jump\t// in\n    tag_19:\n      mload(0x40)\n      tag_21\n      swap2\n      swap1\n      tag_16\n      jump\t// in\n    tag_21:\n      mload(0x40)\n      dup1\n      swap2\n      sub\n      swap1\n      return\n        /* \"FunctionModifer.sol\":1207:1278  function dec2() external checkOnOffModifier {\r... */\n    tag_6:\n      tag_22\n      tag_23\n      jump\t// in\n    tag_22:\n      stop\n        /* \"FunctionModifer.sol\":148:224  function changeOnOff(bool _onOff) external {\r... */\n    tag_7:\n      tag_24\n      0x04\n      dup1\n      calldatasize\n      sub\n      dup2\n      add\n      swap1\n      tag_25\n      swap2\n      swap1\n      tag_26\n      jump\t// in\n    tag_25:\n      tag_27\n      jump\t// in\n    tag_24:\n      stop\n        /* \"FunctionModifer.sol\":1118:1199  function inc2() external checkOnOffModifier {\r... */\n    tag_8:\n      tag_28\n      tag_29\n      jump\t// in\n    tag_28:\n      stop\n        /* \"FunctionModifer.sol\":280:374  function checkOnOff() public view{\r... */\n    tag_9:\n      tag_30\n      tag_31\n      jump\t// in\n    tag_30:\n      stop\n        /* \"FunctionModifer.sol\":121:138  bool public onOff */\n    tag_10:\n      tag_32\n      tag_33\n      jump\t// in\n    tag_32:\n      mload(0x40)\n      tag_34\n      swap2\n      swap1\n      tag_35\n      jump\t// in\n    tag_34:\n      mload(0x40)\n      dup1\n      swap2\n      sub\n      swap1\n      return\n        /* \"FunctionModifer.sol\":579:672  function dec() external returns(uint){\r... */\n    tag_11:\n      tag_36\n      tag_37\n      jump\t// in\n    tag_36:\n      mload(0x40)\n      tag_38\n      swap2\n      swap1\n      tag_16\n      jump\t// in\n    tag_38:\n      mload(0x40)\n      dup1\n      swap2\n      sub\n      swap1\n      return\n        /* \"FunctionModifer.sol\":93:110  uint public count */\n    tag_14:\n      sload(0x00)\n      dup2\n      jump\t// out\n        /* \"FunctionModifer.sol\":1413:1501  function testRound() public round{\r... */\n    tag_18:\n        /* \"FunctionModifer.sol\":1331:1335  true */\n      0x01\n        /* \"FunctionModifer.sol\":1322:1335  onOff == true */\n      iszero\n      iszero\n        /* \"FunctionModifer.sol\":1322:1327  onOff */\n      0x01\n      0x00\n      swap1\n      sload\n      swap1\n      0x0100\n      exp\n      swap1\n      div\n      0xff\n      and\n        /* \"FunctionModifer.sol\":1322:1335  onOff == true */\n      iszero\n      iszero\n      eq\n        /* \"FunctionModifer.sol\":1315:1336  assert(onOff == true) */\n      tag_40\n      jumpi\n      tag_41\n      tag_42\n      jump\t// in\n    tag_41:\n    tag_40:\n        /* \"FunctionModifer.sol\":1355:1358  100 */\n      0x64\n        /* \"FunctionModifer.sol\":1347:1352  count */\n      0x00\n        /* \"FunctionModifer.sol\":1347:1358  count = 100 */\n      dup2\n      swap1\n      sstore\n      pop\n        /* \"FunctionModifer.sol\":1466:1467  1 */\n      0x01\n        /* \"FunctionModifer.sol\":1457:1462  count */\n      0x00\n      dup1\n        /* \"FunctionModifer.sol\":1457:1467  count += 1 */\n      dup3\n      dup3\n      sload\n      tag_44\n      swap2\n      swap1\n      tag_45\n      jump\t// in\n    tag_44:\n      swap3\n      pop\n      pop\n      dup2\n      swap1\n      sstore\n      pop\n        /* \"FunctionModifer.sol\":1394:1397  100 */\n      0x64\n        /* \"FunctionModifer.sol\":1385:1390  count */\n      0x00\n      dup1\n        /* \"FunctionModifer.sol\":1385:1397  count -= 100 */\n      dup3\n      dup3\n      sload\n      tag_46\n      swap2\n      swap1\n      tag_47\n      jump\t// in\n    tag_46:\n      swap3\n      pop\n      pop\n      dup2\n      swap1\n      sstore\n      pop\n        /* \"FunctionModifer.sol\":1413:1501  function testRound() public round{\r... */\n      jump\t// out\n        /* \"FunctionModifer.sol\":382:571  function inc() external returns(uint){\r... */\n    tag_20:\n        /* \"FunctionModifer.sol\":414:418  uint */\n      0x00\n        /* \"FunctionModifer.sol\":526:538  checkOnOff() */\n      tag_49\n        /* \"FunctionModifer.sol\":526:536  checkOnOff */\n      tag_31\n        /* \"FunctionModifer.sol\":526:538  checkOnOff() */\n      jump\t// in\n    tag_49:\n        /* \"FunctionModifer.sol\":556:561  count */\n      0x00\n      dup1\n        /* \"FunctionModifer.sol\":556:563  count++ */\n      dup2\n      sload\n      dup1\n      swap3\n      swap2\n      swap1\n      tag_50\n      swap1\n      tag_51\n      jump\t// in\n    tag_50:\n      swap2\n      swap1\n      pop\n      sstore\n        /* \"FunctionModifer.sol\":549:563  return count++ */\n      swap1\n      pop\n        /* \"FunctionModifer.sol\":382:571  function inc() external returns(uint){\r... */\n      swap1\n      jump\t// out\n        /* \"FunctionModifer.sol\":1207:1278  function dec2() external checkOnOffModifier {\r... */\n    tag_23:\n        /* \"FunctionModifer.sol\":867:872  false */\n      0x00\n        /* \"FunctionModifer.sol\":858:872  onOff == false */\n      iszero\n      iszero\n        /* \"FunctionModifer.sol\":858:863  onOff */\n      0x01\n      0x00\n      swap1\n      sload\n      swap1\n      0x0100\n      exp\n      swap1\n      div\n      0xff\n      and\n        /* \"FunctionModifer.sol\":858:872  onOff == false */\n      iszero\n      iszero\n      eq\n        /* \"FunctionModifer.sol\":855:926  if(onOff == false){\r... */\n      iszero\n      tag_53\n      jumpi\n        /* \"FunctionModifer.sol\":889:913  revert(\"onOff is false\") */\n      mload(0x40)\n      0x08c379a000000000000000000000000000000000000000000000000000000000\n      dup2\n      mstore\n      0x04\n      add\n      tag_54\n      swap1\n      tag_55\n      jump\t// in\n    tag_54:\n      mload(0x40)\n      dup1\n      swap2\n      sub\n      swap1\n      revert\n        /* \"FunctionModifer.sol\":855:926  if(onOff == false){\r... */\n    tag_53:\n        /* \"FunctionModifer.sol\":1263:1268  count */\n      0x00\n      dup1\n        /* \"FunctionModifer.sol\":1263:1270  count-- */\n      dup2\n      sload\n      dup1\n      swap3\n      swap2\n      swap1\n      tag_57\n      swap1\n      tag_58\n      jump\t// in\n    tag_57:\n      swap2\n      swap1\n      pop\n      sstore\n      pop\n        /* \"FunctionModifer.sol\":1207:1278  function dec2() external checkOnOffModifier {\r... */\n      jump\t// out\n        /* \"FunctionModifer.sol\":148:224  function changeOnOff(bool _onOff) external {\r... */\n    tag_27:\n        /* \"FunctionModifer.sol\":210:216  _onOff */\n      dup1\n        /* \"FunctionModifer.sol\":202:207  onOff */\n      0x01\n      0x00\n        /* \"FunctionModifer.sol\":202:216  onOff = _onOff */\n      0x0100\n      exp\n      dup2\n      sload\n      dup2\n      0xff\n      mul\n      not\n      and\n      swap1\n      dup4\n      iszero\n      iszero\n      mul\n      or\n      swap1\n      sstore\n      pop\n        /* \"FunctionModifer.sol\":148:224  function changeOnOff(bool _onOff) external {\r... */\n      pop\n      jump\t// out\n        /* \"FunctionModifer.sol\":1118:1199  function inc2() external checkOnOffModifier {\r... */\n    tag_29:\n        /* \"FunctionModifer.sol\":867:872  false */\n      0x00\n        /* \"FunctionModifer.sol\":858:872  onOff == false */\n      iszero\n      iszero\n        /* \"FunctionModifer.sol\":858:863  onOff */\n      0x01\n      0x00\n      swap1\n      sload\n      swap1\n      0x0100\n      exp\n      swap1\n      div\n      0xff\n      and\n        /* \"FunctionModifer.sol\":858:872  onOff == false */\n      iszero\n      iszero\n      eq\n        /* \"FunctionModifer.sol\":855:926  if(onOff == false){\r... */\n      iszero\n      tag_61\n      jumpi\n        /* \"FunctionModifer.sol\":889:913  revert(\"onOff is false\") */\n      mload(0x40)\n      0x08c379a000000000000000000000000000000000000000000000000000000000\n      dup2\n      mstore\n      0x04\n      add\n      tag_62\n      swap1\n      tag_55\n      jump\t// in\n    tag_62:\n      mload(0x40)\n      dup1\n      swap2\n      sub\n      swap1\n      revert\n        /* \"FunctionModifer.sol\":855:926  if(onOff == false){\r... */\n    tag_61:\n        /* \"FunctionModifer.sol\":1184:1189  count */\n      0x00\n      dup1\n        /* \"FunctionModifer.sol\":1184:1191  count++ */\n      dup2\n      sload\n      dup1\n      swap3\n      swap2\n      swap1\n      tag_64\n      swap1\n      tag_51\n      jump\t// in\n    tag_64:\n      swap2\n      swap1\n      pop\n      sstore\n      pop\n        /* \"FunctionModifer.sol\":1118:1199  function inc2() external checkOnOffModifier {\r... */\n      jump\t// out\n        /* \"FunctionModifer.sol\":280:374  function checkOnOff() public view{\r... */\n    tag_31:\n        /* \"FunctionModifer.sol\":339:343  true */\n      0x01\n        /* \"FunctionModifer.sol\":332:343  onOff==true */\n      iszero\n      iszero\n        /* \"FunctionModifer.sol\":332:337  onOff */\n      0x01\n      0x00\n      swap1\n      sload\n      swap1\n      0x0100\n      exp\n      swap1\n      div\n      0xff\n      and\n        /* \"FunctionModifer.sol\":332:343  onOff==true */\n      iszero\n      iszero\n      eq\n        /* \"FunctionModifer.sol\":324:366  require(onOff==true , \"onOff is not true\") */\n      tag_66\n      jumpi\n      mload(0x40)\n      0x08c379a000000000000000000000000000000000000000000000000000000000\n      dup2\n      mstore\n      0x04\n      add\n      tag_67\n      swap1\n      tag_68\n      jump\t// in\n    tag_67:\n      mload(0x40)\n      dup1\n      swap2\n      sub\n      swap1\n      revert\n    tag_66:\n        /* \"FunctionModifer.sol\":280:374  function checkOnOff() public view{\r... */\n      jump\t// out\n        /* \"FunctionModifer.sol\":121:138  bool public onOff */\n    tag_33:\n      0x01\n      0x00\n      swap1\n      sload\n      swap1\n      0x0100\n      exp\n      swap1\n      div\n      0xff\n      and\n      dup2\n      jump\t// out\n        /* \"FunctionModifer.sol\":579:672  function dec() external returns(uint){\r... */\n    tag_37:\n        /* \"FunctionModifer.sol\":611:615  uint */\n      0x00\n        /* \"FunctionModifer.sol\":627:639  checkOnOff() */\n      tag_70\n        /* \"FunctionModifer.sol\":627:637  checkOnOff */\n      tag_31\n        /* \"FunctionModifer.sol\":627:639  checkOnOff() */\n      jump\t// in\n    tag_70:\n        /* \"FunctionModifer.sol\":657:662  count */\n      0x00\n      dup1\n        /* \"FunctionModifer.sol\":657:664  count-- */\n      dup2\n      sload\n      dup1\n      swap3\n      swap2\n      swap1\n      tag_71\n      swap1\n      tag_58\n      jump\t// in\n    tag_71:\n      swap2\n      swap1\n      pop\n      sstore\n        /* \"FunctionModifer.sol\":650:664  return count-- */\n      swap1\n      pop\n        /* \"FunctionModifer.sol\":579:672  function dec() external returns(uint){\r... */\n      swap1\n      jump\t// out\n        /* \"#utility.yul\":7:140   */\n    tag_73:\n        /* \"#utility.yul\":50:55   */\n      0x00\n        /* \"#utility.yul\":88:94   */\n      dup2\n        /* \"#utility.yul\":75:95   */\n      calldataload\n        /* \"#utility.yul\":66:95   */\n      swap1\n      pop\n        /* \"#utility.yul\":104:134   */\n      tag_75\n        /* \"#utility.yul\":128:133   */\n      dup2\n        /* \"#utility.yul\":104:134   */\n      tag_76\n      jump\t// in\n    tag_75:\n        /* \"#utility.yul\":7:140   */\n      swap3\n      swap2\n      pop\n      pop\n      jump\t// out\n        /* \"#utility.yul\":146:469   */\n    tag_26:\n        /* \"#utility.yul\":202:208   */\n      0x00\n        /* \"#utility.yul\":251:253   */\n      0x20\n        /* \"#utility.yul\":239:248   */\n      dup3\n        /* \"#utility.yul\":230:237   */\n      dup5\n        /* \"#utility.yul\":226:249   */\n      sub\n        /* \"#utility.yul\":222:254   */\n      slt\n        /* \"#utility.yul\":219:338   */\n      iszero\n      tag_78\n      jumpi\n        /* \"#utility.yul\":257:336   */\n      tag_79\n      tag_80\n      jump\t// in\n    tag_79:\n        /* \"#utility.yul\":219:338   */\n    tag_78:\n        /* \"#utility.yul\":377:378   */\n      0x00\n        /* \"#utility.yul\":402:452   */\n      tag_81\n        /* \"#utility.yul\":444:451   */\n      dup5\n        /* \"#utility.yul\":435:441   */\n      dup3\n        /* \"#utility.yul\":424:433   */\n      dup6\n        /* \"#utility.yul\":420:442   */\n      add\n        /* \"#utility.yul\":402:452   */\n      tag_73\n      jump\t// in\n    tag_81:\n        /* \"#utility.yul\":392:452   */\n      swap2\n      pop\n        /* \"#utility.yul\":348:462   */\n      pop\n        /* \"#utility.yul\":146:469   */\n      swap3\n      swap2\n      pop\n      pop\n      jump\t// out\n        /* \"#utility.yul\":475:584   */\n    tag_82:\n        /* \"#utility.yul\":556:577   */\n      tag_84\n        /* \"#utility.yul\":571:576   */\n      dup2\n        /* \"#utility.yul\":556:577   */\n      tag_85\n      jump\t// in\n    tag_84:\n        /* \"#utility.yul\":551:554   */\n      dup3\n        /* \"#utility.yul\":544:578   */\n      mstore\n        /* \"#utility.yul\":475:584   */\n      pop\n      pop\n      jump\t// out\n        /* \"#utility.yul\":590:956   */\n    tag_86:\n        /* \"#utility.yul\":732:735   */\n      0x00\n        /* \"#utility.yul\":753:820   */\n      tag_88\n        /* \"#utility.yul\":817:819   */\n      0x0e\n        /* \"#utility.yul\":812:815   */\n      dup4\n        /* \"#utility.yul\":753:820   */\n      tag_89\n      jump\t// in\n    tag_88:\n        /* \"#utility.yul\":746:820   */\n      swap2\n      pop\n        /* \"#utility.yul\":829:922   */\n      tag_90\n        /* \"#utility.yul\":918:921   */\n      dup3\n        /* \"#utility.yul\":829:922   */\n      tag_91\n      jump\t// in\n    tag_90:\n        /* \"#utility.yul\":947:949   */\n      0x20\n        /* \"#utility.yul\":942:945   */\n      dup3\n        /* \"#utility.yul\":938:950   */\n      add\n        /* \"#utility.yul\":931:950   */\n      swap1\n      pop\n        /* \"#utility.yul\":590:956   */\n      swap2\n      swap1\n      pop\n      jump\t// out\n        /* \"#utility.yul\":962:1328   */\n    tag_92:\n        /* \"#utility.yul\":1104:1107   */\n      0x00\n        /* \"#utility.yul\":1125:1192   */\n      tag_94\n        /* \"#utility.yul\":1189:1191   */\n      0x11\n        /* \"#utility.yul\":1184:1187   */\n      dup4\n        /* \"#utility.yul\":1125:1192   */\n      tag_89\n      jump\t// in\n    tag_94:\n        /* \"#utility.yul\":1118:1192   */\n      swap2\n      pop\n        /* \"#utility.yul\":1201:1294   */\n      tag_95\n        /* \"#utility.yul\":1290:1293   */\n      dup3\n        /* \"#utility.yul\":1201:1294   */\n      tag_96\n      jump\t// in\n    tag_95:\n        /* \"#utility.yul\":1319:1321   */\n      0x20\n        /* \"#utility.yul\":1314:1317   */\n      dup3\n        /* \"#utility.yul\":1310:1322   */\n      add\n        /* \"#utility.yul\":1303:1322   */\n      swap1\n      pop\n        /* \"#utility.yul\":962:1328   */\n      swap2\n      swap1\n      pop\n      jump\t// out\n        /* \"#utility.yul\":1334:1452   */\n    tag_97:\n        /* \"#utility.yul\":1421:1445   */\n      tag_99\n        /* \"#utility.yul\":1439:1444   */\n      dup2\n        /* \"#utility.yul\":1421:1445   */\n      tag_100\n      jump\t// in\n    tag_99:\n        /* \"#utility.yul\":1416:1419   */\n      dup3\n        /* \"#utility.yul\":1409:1446   */\n      mstore\n        /* \"#utility.yul\":1334:1452   */\n      pop\n      pop\n      jump\t// out\n        /* \"#utility.yul\":1458:1668   */\n    tag_35:\n        /* \"#utility.yul\":1545:1549   */\n      0x00\n        /* \"#utility.yul\":1583:1585   */\n      0x20\n        /* \"#utility.yul\":1572:1581   */\n      dup3\n        /* \"#utility.yul\":1568:1586   */\n      add\n        /* \"#utility.yul\":1560:1586   */\n      swap1\n      pop\n        /* \"#utility.yul\":1596:1661   */\n      tag_102\n        /* \"#utility.yul\":1658:1659   */\n      0x00\n        /* \"#utility.yul\":1647:1656   */\n      dup4\n        /* \"#utility.yul\":1643:1660   */\n      add\n        /* \"#utility.yul\":1634:1640   */\n      dup5\n        /* \"#utility.yul\":1596:1661   */\n      tag_82\n      jump\t// in\n    tag_102:\n        /* \"#utility.yul\":1458:1668   */\n      swap3\n      swap2\n      pop\n      pop\n      jump\t// out\n        /* \"#utility.yul\":1674:2093   */\n    tag_55:\n        /* \"#utility.yul\":1840:1844   */\n      0x00\n        /* \"#utility.yul\":1878:1880   */\n      0x20\n        /* \"#utility.yul\":1867:1876   */\n      dup3\n        /* \"#utility.yul\":1863:1881   */\n      add\n        /* \"#utility.yul\":1855:1881   */\n      swap1\n      pop\n        /* \"#utility.yul\":1927:1936   */\n      dup2\n        /* \"#utility.yul\":1921:1925   */\n      dup2\n        /* \"#utility.yul\":1917:1937   */\n      sub\n        /* \"#utility.yul\":1913:1914   */\n      0x00\n        /* \"#utility.yul\":1902:1911   */\n      dup4\n        /* \"#utility.yul\":1898:1915   */\n      add\n        /* \"#utility.yul\":1891:1938   */\n      mstore\n        /* \"#utility.yul\":1955:2086   */\n      tag_104\n        /* \"#utility.yul\":2081:2085   */\n      dup2\n        /* \"#utility.yul\":1955:2086   */\n      tag_86\n      jump\t// in\n    tag_104:\n        /* \"#utility.yul\":1947:2086   */\n      swap1\n      pop\n        /* \"#utility.yul\":1674:2093   */\n      swap2\n      swap1\n      pop\n      jump\t// out\n        /* \"#utility.yul\":2099:2518   */\n    tag_68:\n        /* \"#utility.yul\":2265:2269   */\n      0x00\n        /* \"#utility.yul\":2303:2305   */\n      0x20\n        /* \"#utility.yul\":2292:2301   */\n      dup3\n        /* \"#utility.yul\":2288:2306   */\n      add\n        /* \"#utility.yul\":2280:2306   */\n      swap1\n      pop\n        /* \"#utility.yul\":2352:2361   */\n      dup2\n        /* \"#utility.yul\":2346:2350   */\n      dup2\n        /* \"#utility.yul\":2342:2362   */\n      sub\n        /* \"#utility.yul\":2338:2339   */\n      0x00\n        /* \"#utility.yul\":2327:2336   */\n      dup4\n        /* \"#utility.yul\":2323:2340   */\n      add\n        /* \"#utility.yul\":2316:2363   */\n      mstore\n        /* \"#utility.yul\":2380:2511   */\n      tag_106\n        /* \"#utility.yul\":2506:2510   */\n      dup2\n        /* \"#utility.yul\":2380:2511   */\n      tag_92\n      jump\t// in\n    tag_106:\n        /* \"#utility.yul\":2372:2511   */\n      swap1\n      pop\n        /* \"#utility.yul\":2099:2518   */\n      swap2\n      swap1\n      pop\n      jump\t// out\n        /* \"#utility.yul\":2524:2746   */\n    tag_16:\n        /* \"#utility.yul\":2617:2621   */\n      0x00\n        /* \"#utility.yul\":2655:2657   */\n      0x20\n        /* \"#utility.yul\":2644:2653   */\n      dup3\n        /* \"#utility.yul\":2640:2658   */\n      add\n        /* \"#utility.yul\":2632:2658   */\n      swap1\n      pop\n        /* \"#utility.yul\":2668:2739   */\n      tag_108\n        /* \"#utility.yul\":2736:2737   */\n      0x00\n        /* \"#utility.yul\":2725:2734   */\n      dup4\n        /* \"#utility.yul\":2721:2738   */\n      add\n        /* \"#utility.yul\":2712:2718   */\n      dup5\n        /* \"#utility.yul\":2668:2739   */\n      tag_97\n      jump\t// in\n    tag_108:\n        /* \"#utility.yul\":2524:2746   */\n      swap3\n      swap2\n      pop\n      pop\n      jump\t// out\n        /* \"#utility.yul\":2833:3002   */\n    tag_89:\n        /* \"#utility.yul\":2917:2928   */\n      0x00\n        /* \"#utility.yul\":2951:2957   */\n      dup3\n        /* \"#utility.yul\":2946:2949   */\n      dup3\n        /* \"#utility.yul\":2939:2958   */\n      mstore\n        /* \"#utility.yul\":2991:2995   */\n      0x20\n        /* \"#utility.yul\":2986:2989   */\n      dup3\n        /* \"#utility.yul\":2982:2996   */\n      add\n        /* \"#utility.yul\":2967:2996   */\n      swap1\n      pop\n        /* \"#utility.yul\":2833:3002   */\n      swap3\n      swap2\n      pop\n      pop\n      jump\t// out\n        /* \"#utility.yul\":3008:3313   */\n    tag_45:\n        /* \"#utility.yul\":3048:3051   */\n      0x00\n        /* \"#utility.yul\":3067:3087   */\n      tag_113\n        /* \"#utility.yul\":3085:3086   */\n      dup3\n        /* \"#utility.yul\":3067:3087   */\n      tag_100\n      jump\t// in\n    tag_113:\n        /* \"#utility.yul\":3062:3087   */\n      swap2\n      pop\n        /* \"#utility.yul\":3101:3121   */\n      tag_114\n        /* \"#utility.yul\":3119:3120   */\n      dup4\n        /* \"#utility.yul\":3101:3121   */\n      tag_100\n      jump\t// in\n    tag_114:\n        /* \"#utility.yul\":3096:3121   */\n      swap3\n      pop\n        /* \"#utility.yul\":3255:3256   */\n      dup3\n        /* \"#utility.yul\":3187:3253   */\n      0xffffffffffffffffffffffffffffffffffffffffffffffffffffffffffffffff\n        /* \"#utility.yul\":3183:3257   */\n      sub\n        /* \"#utility.yul\":3180:3181   */\n      dup3\n        /* \"#utility.yul\":3177:3258   */\n      gt\n        /* \"#utility.yul\":3174:3281   */\n      iszero\n      tag_115\n      jumpi\n        /* \"#utility.yul\":3261:3279   */\n      tag_116\n      tag_117\n      jump\t// in\n    tag_116:\n        /* \"#utility.yul\":3174:3281   */\n    tag_115:\n        /* \"#utility.yul\":3305:3306   */\n      dup3\n        /* \"#utility.yul\":3302:3303   */\n      dup3\n        /* \"#utility.yul\":3298:3307   */\n      add\n        /* \"#utility.yul\":3291:3307   */\n      swap1\n      pop\n        /* \"#utility.yul\":3008:3313   */\n      swap3\n      swap2\n      pop\n      pop\n      jump\t// out\n        /* \"#utility.yul\":3319:3510   */\n    tag_47:\n        /* \"#utility.yul\":3359:3363   */\n      0x00\n        /* \"#utility.yul\":3379:3399   */\n      tag_119\n        /* \"#utility.yul\":3397:3398   */\n      dup3\n        /* \"#utility.yul\":3379:3399   */\n      tag_100\n      jump\t// in\n    tag_119:\n        /* \"#utility.yul\":3374:3399   */\n      swap2\n      pop\n        /* \"#utility.yul\":3413:3433   */\n      tag_120\n        /* \"#utility.yul\":3431:3432   */\n      dup4\n        /* \"#utility.yul\":3413:3433   */\n      tag_100\n      jump\t// in\n    tag_120:\n        /* \"#utility.yul\":3408:3433   */\n      swap3\n      pop\n        /* \"#utility.yul\":3452:3453   */\n      dup3\n        /* \"#utility.yul\":3449:3450   */\n      dup3\n        /* \"#utility.yul\":3446:3454   */\n      lt\n        /* \"#utility.yul\":3443:3477   */\n      iszero\n      tag_121\n      jumpi\n        /* \"#utility.yul\":3457:3475   */\n      tag_122\n      tag_117\n      jump\t// in\n    tag_122:\n        /* \"#utility.yul\":3443:3477   */\n    tag_121:\n        /* \"#utility.yul\":3502:3503   */\n      dup3\n        /* \"#utility.yul\":3499:3500   */\n      dup3\n        /* \"#utility.yul\":3495:3504   */\n      sub\n        /* \"#utility.yul\":3487:3504   */\n      swap1\n      pop\n        /* \"#utility.yul\":3319:3510   */\n      swap3\n      swap2\n      pop\n      pop\n      jump\t// out\n        /* \"#utility.yul\":3516:3606   */\n    tag_85:\n        /* \"#utility.yul\":3550:3557   */\n      0x00\n        /* \"#utility.yul\":3593:3598   */\n      dup2\n        /* \"#utility.yul\":3586:3599   */\n      iszero\n        /* \"#utility.yul\":3579:3600   */\n      iszero\n        /* \"#utility.yul\":3568:3600   */\n      swap1\n      pop\n        /* \"#utility.yul\":3516:3606   */\n      swap2\n      swap1\n      pop\n      jump\t// out\n        /* \"#utility.yul\":3612:3689   */\n    tag_100:\n        /* \"#utility.yul\":3649:3656   */\n      0x00\n        /* \"#utility.yul\":3678:3683   */\n      dup2\n        /* \"#utility.yul\":3667:3683   */\n      swap1\n      pop\n        /* \"#utility.yul\":3612:3689   */\n      swap2\n      swap1\n      pop\n      jump\t// out\n        /* \"#utility.yul\":3695:3866   */\n    tag_58:\n        /* \"#utility.yul\":3734:3737   */\n      0x00\n        /* \"#utility.yul\":3757:3781   */\n      tag_126\n        /* \"#utility.yul\":3775:3780   */\n      dup3\n        /* \"#utility.yul\":3757:3781   */\n      tag_100\n      jump\t// in\n    tag_126:\n        /* \"#utility.yul\":3748:3781   */\n      swap2\n      pop\n        /* \"#utility.yul\":3803:3807   */\n      0x00\n        /* \"#utility.yul\":3796:3801   */\n      dup3\n        /* \"#utility.yul\":3793:3808   */\n      eq\n        /* \"#utility.yul\":3790:3831   */\n      iszero\n      tag_127\n      jumpi\n        /* \"#utility.yul\":3811:3829   */\n      tag_128\n      tag_117\n      jump\t// in\n    tag_128:\n        /* \"#utility.yul\":3790:3831   */\n    tag_127:\n        /* \"#utility.yul\":3858:3859   */\n      0x01\n        /* \"#utility.yul\":3851:3856   */\n      dup3\n        /* \"#utility.yul\":3847:3860   */\n      sub\n        /* \"#utility.yul\":3840:3860   */\n      swap1\n      pop\n        /* \"#utility.yul\":3695:3866   */\n      swap2\n      swap1\n      pop\n      jump\t// out\n        /* \"#utility.yul\":3872:4105   */\n    tag_51:\n        /* \"#utility.yul\":3911:3914   */\n      0x00\n        /* \"#utility.yul\":3934:3958   */\n      tag_130\n        /* \"#utility.yul\":3952:3957   */\n      dup3\n        /* \"#utility.yul\":3934:3958   */\n      tag_100\n      jump\t// in\n    tag_130:\n        /* \"#utility.yul\":3925:3958   */\n      swap2\n      pop\n        /* \"#utility.yul\":3980:4046   */\n      0xffffffffffffffffffffffffffffffffffffffffffffffffffffffffffffffff\n        /* \"#utility.yul\":3973:3978   */\n      dup3\n        /* \"#utility.yul\":3970:4047   */\n      eq\n        /* \"#utility.yul\":3967:4070   */\n      iszero\n      tag_131\n      jumpi\n        /* \"#utility.yul\":4050:4068   */\n      tag_132\n      tag_117\n      jump\t// in\n    tag_132:\n        /* \"#utility.yul\":3967:4070   */\n    tag_131:\n        /* \"#utility.yul\":4097:4098   */\n      0x01\n        /* \"#utility.yul\":4090:4095   */\n      dup3\n        /* \"#utility.yul\":4086:4099   */\n      add\n        /* \"#utility.yul\":4079:4099   */\n      swap1\n      pop\n        /* \"#utility.yul\":3872:4105   */\n      swap2\n      swap1\n      pop\n      jump\t// out\n        /* \"#utility.yul\":4111:4291   */\n    tag_42:\n        /* \"#utility.yul\":4159:4236   */\n      0x4e487b7100000000000000000000000000000000000000000000000000000000\n        /* \"#utility.yul\":4156:4157   */\n      0x00\n        /* \"#utility.yul\":4149:4237   */\n      mstore\n        /* \"#utility.yul\":4256:4260   */\n      0x01\n        /* \"#utility.yul\":4253:4254   */\n      0x04\n        /* \"#utility.yul\":4246:4261   */\n      mstore\n        /* \"#utility.yul\":4280:4284   */\n      0x24\n        /* \"#utility.yul\":4277:4278   */\n      0x00\n        /* \"#utility.yul\":4270:4285   */\n      revert\n        /* \"#utility.yul\":4297:4477   */\n    tag_117:\n        /* \"#utility.yul\":4345:4422   */\n      0x4e487b7100000000000000000000000000000000000000000000000000000000\n        /* \"#utility.yul\":4342:4343   */\n      0x00\n        /* \"#utility.yul\":4335:4423   */\n      mstore\n        /* \"#utility.yul\":4442:4446   */\n      0x11\n        /* \"#utility.yul\":4439:4440   */\n      0x04\n        /* \"#utility.yul\":4432:4447   */\n      mstore\n        /* \"#utility.yul\":4466:4470   */\n      0x24\n        /* \"#utility.yul\":4463:4464   */\n      0x00\n        /* \"#utility.yul\":4456:4471   */\n      revert\n        /* \"#utility.yul\":4606:4723   */\n    tag_80:\n        /* \"#utility.yul\":4715:4716   */\n      0x00\n        /* \"#utility.yul\":4712:4713   */\n      dup1\n        /* \"#utility.yul\":4705:4717   */\n      revert\n        /* \"#utility.yul\":4729:4893   */\n    tag_91:\n        /* \"#utility.yul\":4869:4885   */\n      0x6f6e4f66662069732066616c7365000000000000000000000000000000000000\n        /* \"#utility.yul\":4865:4866   */\n      0x00\n        /* \"#utility.yul\":4857:4863   */\n      dup3\n        /* \"#utility.yul\":4853:4867   */\n      add\n        /* \"#utility.yul\":4846:4886   */\n      mstore\n        /* \"#utility.yul\":4729:4893   */\n      pop\n      jump\t// out\n        /* \"#utility.yul\":4899:5066   */\n    tag_96:\n        /* \"#utility.yul\":5039:5058   */\n      0x6f6e4f6666206973206e6f742074727565000000000000000000000000000000\n        /* \"#utility.yul\":5035:5036   */\n      0x00\n        /* \"#utility.yul\":5027:5033   */\n      dup3\n        /* \"#utility.yul\":5023:5037   */\n      add\n        /* \"#utility.yul\":5016:5059   */\n      mstore\n        /* \"#utility.yul\":4899:5066   */\n      pop\n      jump\t// out\n        /* \"#utility.yul\":5072:5188   */\n    tag_76:\n        /* \"#utility.yul\":5142:5163   */\n      tag_141\n        /* \"#utility.yul\":5157:5162   */\n      dup2\n        /* \"#utility.yul\":5142:5163   */\n      tag_85\n      jump\t// in\n    tag_141:\n        /* \"#utility.yul\":5135:5140   */\n      dup2\n        /* \"#utility.yul\":5132:5164   */\n      eq\n        /* \"#utility.yul\":5122:5182   */\n      tag_142\n      jumpi\n        /* \"#utility.yul\":5178:5179   */\n      0x00\n        /* \"#utility.yul\":5175:5176   */\n      dup1\n        /* \"#utility.yul\":5168:5180   */\n      revert\n        /* \"#utility.yul\":5122:5182   */\n    tag_142:\n        /* \"#utility.yul\":5072:5188   */\n      pop\n      jump\t// out\n\n    auxdata: 0xa2646970667358221220d28fd36902665456882813dab2ad6960c81dd9c197c7f7c3511d20891309bd9264736f6c63430008070033\n}\n",
				"bytecode": {
					"linkReferences": {},
					"object": "608060405234801561001057600080fd5b506106ae806100206000396000f3fe608060405234801561001057600080fd5b50600436106100935760003560e01c80636e4a7f87116100665780636e4a7f87146100e857806371c9f31c146101045780637cf1e1ee1461010e5780639ddc4e6714610118578063b3bcfa821461013657610093565b806306661abd14610098578063128dbf56146100b6578063371303c0146100c0578063552350aa146100de575b600080fd5b6100a0610154565b6040516100ad919061046d565b60405180910390f35b6100be61015a565b005b6100c86101ba565b6040516100d5919061046d565b60405180910390f35b6100e66101df565b005b61010260048036038101906100fd9190610381565b61024f565b005b61010c61026c565b005b6101166102dc565b005b610120610334565b60405161012d9190610412565b60405180910390f35b61013e610347565b60405161014b919061046d565b60405180910390f35b60005481565b60011515600160009054906101000a900460ff1615151461017e5761017d6105ac565b5b606460008190555060016000808282546101989190610499565b9250508190555060646000808282546101b191906104ef565b92505081905550565b60006101c46102dc565b6000808154809291906101d690610563565b91905055905090565b60001515600160009054906101000a900460ff1615151415610236576040517f08c379a000000000000000000000000000000000000000000000000000000000815260040161022d9061042d565b60405180910390fd5b60008081548092919061024890610539565b9190505550565b80600160006101000a81548160ff02191690831515021790555050565b60001515600160009054906101000a900460ff16151514156102c3576040517f08c379a00000000000000000000000000000000000000000000000000000000081526004016102ba9061042d565b60405180910390fd5b6000808154809291906102d590610563565b9190505550565b60011515600160009054906101000a900460ff16151514610332576040517f08c379a00000000000000000000000000000000000000000000000000000000081526004016103299061044d565b60405180910390fd5b565b600160009054906101000a900460ff1681565b60006103516102dc565b60008081548092919061036390610539565b91905055905090565b60008135905061037b81610661565b92915050565b6000602082840312156103975761039661060a565b5b60006103a58482850161036c565b91505092915050565b6103b781610523565b82525050565b60006103ca600e83610488565b91506103d58261060f565b602082019050919050565b60006103ed601183610488565b91506103f882610638565b602082019050919050565b61040c8161052f565b82525050565b600060208201905061042760008301846103ae565b92915050565b60006020820190508181036000830152610446816103bd565b9050919050565b60006020820190508181036000830152610466816103e0565b9050919050565b60006020820190506104826000830184610403565b92915050565b600082825260208201905092915050565b60006104a48261052f565b91506104af8361052f565b9250827fffffffffffffffffffffffffffffffffffffffffffffffffffffffffffffffff038211156104e4576104e36105db565b5b828201905092915050565b60006104fa8261052f565b91506105058361052f565b925082821015610518576105176105db565b5b828203905092915050565b60008115159050919050565b6000819050919050565b60006105448261052f565b91506000821415610558576105576105db565b5b600182039050919050565b600061056e8261052f565b91507fffffffffffffffffffffffffffffffffffffffffffffffffffffffffffffffff8214156105a1576105a06105db565b5b600182019050919050565b7f4e487b7100000000000000000000000000000000000000000000000000000000600052600160045260246000fd5b7f4e487b7100000000000000000000000000000000000000000000000000000000600052601160045260246000fd5b600080fd5b7f6f6e4f66662069732066616c7365000000000000000000000000000000000000600082015250565b7f6f6e4f6666206973206e6f742074727565000000000000000000000000000000600082015250565b61066a81610523565b811461067557600080fd5b5056fea2646970667358221220d28fd36902665456882813dab2ad6960c81dd9c197c7f7c3511d20891309bd9264736f6c63430008070033",
					"opcodes": "PUSH1 0x80 PUSH1 0x40 MSTORE CALLVALUE DUP1 ISZERO PUSH2 0x10 JUMPI PUSH1 0x0 DUP1 REVERT JUMPDEST POP PUSH2 0x6AE DUP1 PUSH2 0x20 PUSH1 0x0 CODECOPY PUSH1 0x0 RETURN INVALID PUSH1 0x80 PUSH1 0x40 MSTORE CALLVALUE DUP1 ISZERO PUSH2 0x10 JUMPI PUSH1 0x0 DUP1 REVERT JUMPDEST POP PUSH1 0x4 CALLDATASIZE LT PUSH2 0x93 JUMPI PUSH1 0x0 CALLDATALOAD PUSH1 0xE0 SHR DUP1 PUSH4 0x6E4A7F87 GT PUSH2 0x66 JUMPI DUP1 PUSH4 0x6E4A7F87 EQ PUSH2 0xE8 JUMPI DUP1 PUSH4 0x71C9F31C EQ PUSH2 0x104 JUMPI DUP1 PUSH4 0x7CF1E1EE EQ PUSH2 0x10E JUMPI DUP1 PUSH4 0x9DDC4E67 EQ PUSH2 0x118 JUMPI DUP1 PUSH4 0xB3BCFA82 EQ PUSH2 0x136 JUMPI PUSH2 0x93 JUMP JUMPDEST DUP1 PUSH4 0x6661ABD EQ PUSH2 0x98 JUMPI DUP1 PUSH4 0x128DBF56 EQ PUSH2 0xB6 JUMPI DUP1 PUSH4 0x371303C0 EQ PUSH2 0xC0 JUMPI DUP1 PUSH4 0x552350AA EQ PUSH2 0xDE JUMPI JUMPDEST PUSH1 0x0 DUP1 REVERT JUMPDEST PUSH2 0xA0 PUSH2 0x154 JUMP JUMPDEST PUSH1 0x40 MLOAD PUSH2 0xAD SWAP2 SWAP1 PUSH2 0x46D JUMP JUMPDEST PUSH1 0x40 MLOAD DUP1 SWAP2 SUB SWAP1 RETURN JUMPDEST PUSH2 0xBE PUSH2 0x15A JUMP JUMPDEST STOP JUMPDEST PUSH2 0xC8 PUSH2 0x1BA JUMP JUMPDEST PUSH1 0x40 MLOAD PUSH2 0xD5 SWAP2 SWAP1 PUSH2 0x46D JUMP JUMPDEST PUSH1 0x40 MLOAD DUP1 SWAP2 SUB SWAP1 RETURN JUMPDEST PUSH2 0xE6 PUSH2 0x1DF JUMP JUMPDEST STOP JUMPDEST PUSH2 0x102 PUSH1 0x4 DUP1 CALLDATASIZE SUB DUP2 ADD SWAP1 PUSH2 0xFD SWAP2 SWAP1 PUSH2 0x381 JUMP JUMPDEST PUSH2 0x24F JUMP JUMPDEST STOP JUMPDEST PUSH2 0x10C PUSH2 0x26C JUMP JUMPDEST STOP JUMPDEST PUSH2 0x116 PUSH2 0x2DC JUMP JUMPDEST STOP JUMPDEST PUSH2 0x120 PUSH2 0x334 JUMP JUMPDEST PUSH1 0x40 MLOAD PUSH2 0x12D SWAP2 SWAP1 PUSH2 0x412 JUMP JUMPDEST PUSH1 0x40 MLOAD DUP1 SWAP2 SUB SWAP1 RETURN JUMPDEST PUSH2 0x13E PUSH2 0x347 JUMP JUMPDEST PUSH1 0x40 MLOAD PUSH2 0x14B SWAP2 SWAP1 PUSH2 0x46D JUMP JUMPDEST PUSH1 0x40 MLOAD DUP1 SWAP2 SUB SWAP1 RETURN JUMPDEST PUSH1 0x0 SLOAD DUP2 JUMP JUMPDEST PUSH1 0x1 ISZERO ISZERO PUSH1 0x1 PUSH1 0x0 SWAP1 SLOAD SWAP1 PUSH2 0x100 EXP SWAP1 DIV PUSH1 0xFF AND ISZERO ISZERO EQ PUSH2 0x17E JUMPI PUSH2 0x17D PUSH2 0x5AC JUMP JUMPDEST JUMPDEST PUSH1 0x64 PUSH1 0x0 DUP2 SWAP1 SSTORE POP PUSH1 0x1 PUSH1 0x0 DUP1 DUP3 DUP3 SLOAD PUSH2 0x198 SWAP2 SWAP1 PUSH2 0x499 JUMP JUMPDEST SWAP3 POP POP DUP2 SWAP1 SSTORE POP PUSH1 0x64 PUSH1 0x0 DUP1 DUP3 DUP3 SLOAD PUSH2 0x1B1 SWAP2 SWAP1 PUSH2 0x4EF JUMP JUMPDEST SWAP3 POP POP DUP2 SWAP1 SSTORE POP JUMP JUMPDEST PUSH1 0x0 PUSH2 0x1C4 PUSH2 0x2DC JUMP JUMPDEST PUSH1 0x0 DUP1 DUP2 SLOAD DUP1 SWAP3 SWAP2 SWAP1 PUSH2 0x1D6 SWAP1 PUSH2 0x563 JUMP JUMPDEST SWAP2 SWAP1 POP SSTORE SWAP1 POP SWAP1 JUMP JUMPDEST PUSH1 0x0 ISZERO ISZERO PUSH1 0x1 PUSH1 0x0 SWAP1 SLOAD SWAP1 PUSH2 0x100 EXP SWAP1 DIV PUSH1 0xFF AND ISZERO ISZERO EQ ISZERO PUSH2 0x236 JUMPI PUSH1 0x40 MLOAD PUSH32 0x8C379A000000000000000000000000000000000000000000000000000000000 DUP2 MSTORE PUSH1 0x4 ADD PUSH2 0x22D SWAP1 PUSH2 0x42D JUMP JUMPDEST PUSH1 0x40 MLOAD DUP1 SWAP2 SUB SWAP1 REVERT JUMPDEST PUSH1 0x0 DUP1 DUP2 SLOAD DUP1 SWAP3 SWAP2 SWAP1 PUSH2 0x248 SWAP1 PUSH2 0x539 JUMP JUMPDEST SWAP2 SWAP1 POP SSTORE POP JUMP JUMPDEST DUP1 PUSH1 0x1 PUSH1 0x0 PUSH2 0x100 EXP DUP2 SLOAD DUP2 PUSH1 0xFF MUL NOT AND SWAP1 DUP4 ISZERO ISZERO MUL OR SWAP1 SSTORE POP POP JUMP JUMPDEST PUSH1 0x0 ISZERO ISZERO PUSH1 0x1 PUSH1 0x0 SWAP1 SLOAD SWAP1 PUSH2 0x100 EXP SWAP1 DIV PUSH1 0xFF AND ISZERO ISZERO EQ ISZERO PUSH2 0x2C3 JUMPI PUSH1 0x40 MLOAD PUSH32 0x8C379A000000000000000000000000000000000000000000000000000000000 DUP2 MSTORE PUSH1 0x4 ADD PUSH2 0x2BA SWAP1 PUSH2 0x42D JUMP JUMPDEST PUSH1 0x40 MLOAD DUP1 SWAP2 SUB SWAP1 REVERT JUMPDEST PUSH1 0x0 DUP1 DUP2 SLOAD DUP1 SWAP3 SWAP2 SWAP1 PUSH2 0x2D5 SWAP1 PUSH2 0x563 JUMP JUMPDEST SWAP2 SWAP1 POP SSTORE POP JUMP JUMPDEST PUSH1 0x1 ISZERO ISZERO PUSH1 0x1 PUSH1 0x0 SWAP1 SLOAD SWAP1 PUSH2 0x100 EXP SWAP1 DIV PUSH1 0xFF AND ISZERO ISZERO EQ PUSH2 0x332 JUMPI PUSH1 0x40 MLOAD PUSH32 0x8C379A000000000000000000000000000000000000000000000000000000000 DUP2 MSTORE PUSH1 0x4 ADD PUSH2 0x329 SWAP1 PUSH2 0x44D JUMP JUMPDEST PUSH1 0x40 MLOAD DUP1 SWAP2 SUB SWAP1 REVERT JUMPDEST JUMP JUMPDEST PUSH1 0x1 PUSH1 0x0 SWAP1 SLOAD SWAP1 PUSH2 0x100 EXP SWAP1 DIV PUSH1 0xFF AND DUP2 JUMP JUMPDEST PUSH1 0x0 PUSH2 0x351 PUSH2 0x2DC JUMP JUMPDEST PUSH1 0x0 DUP1 DUP2 SLOAD DUP1 SWAP3 SWAP2 SWAP1 PUSH2 0x363 SWAP1 PUSH2 0x539 JUMP JUMPDEST SWAP2 SWAP1 POP SSTORE SWAP1 POP SWAP1 JUMP JUMPDEST PUSH1 0x0 DUP2 CALLDATALOAD SWAP1 POP PUSH2 0x37B DUP2 PUSH2 0x661 JUMP JUMPDEST SWAP3 SWAP2 POP POP JUMP JUMPDEST PUSH1 0x0 PUSH1 0x20 DUP3 DUP5 SUB SLT ISZERO PUSH2 0x397 JUMPI PUSH2 0x396 PUSH2 0x60A JUMP JUMPDEST JUMPDEST PUSH1 0x0 PUSH2 0x3A5 DUP5 DUP3 DUP6 ADD PUSH2 0x36C JUMP JUMPDEST SWAP2 POP POP SWAP3 SWAP2 POP POP JUMP JUMPDEST PUSH2 0x3B7 DUP2 PUSH2 0x523 JUMP JUMPDEST DUP3 MSTORE POP POP JUMP JUMPDEST PUSH1 0x0 PUSH2 0x3CA PUSH1 0xE DUP4 PUSH2 0x488 JUMP JUMPDEST SWAP2 POP PUSH2 0x3D5 DUP3 PUSH2 0x60F JUMP JUMPDEST PUSH1 0x20 DUP3 ADD SWAP1 POP SWAP2 SWAP1 POP JUMP JUMPDEST PUSH1 0x0 PUSH2 0x3ED PUSH1 0x11 DUP4 PUSH2 0x488 JUMP JUMPDEST SWAP2 POP PUSH2 0x3F8 DUP3 PUSH2 0x638 JUMP JUMPDEST PUSH1 0x20 DUP3 ADD SWAP1 POP SWAP2 SWAP1 POP JUMP JUMPDEST PUSH2 0x40C DUP2 PUSH2 0x52F JUMP JUMPDEST DUP3 MSTORE POP POP JUMP JUMPDEST PUSH1 0x0 PUSH1 0x20 DUP3 ADD SWAP1 POP PUSH2 0x427 PUSH1 0x0 DUP4 ADD DUP5 PUSH2 0x3AE JUMP JUMPDEST SWAP3 SWAP2 POP POP JUMP JUMPDEST PUSH1 0x0 PUSH1 0x20 DUP3 ADD SWAP1 POP DUP2 DUP2 SUB PUSH1 0x0 DUP4 ADD MSTORE PUSH2 0x446 DUP2 PUSH2 0x3BD JUMP JUMPDEST SWAP1 POP SWAP2 SWAP1 POP JUMP JUMPDEST PUSH1 0x0 PUSH1 0x20 DUP3 ADD SWAP1 POP DUP2 DUP2 SUB PUSH1 0x0 DUP4 ADD MSTORE PUSH2 0x466 DUP2 PUSH2 0x3E0 JUMP JUMPDEST SWAP1 POP SWAP2 SWAP1 POP JUMP JUMPDEST PUSH1 0x0 PUSH1 0x20 DUP3 ADD SWAP1 POP PUSH2 0x482 PUSH1 0x0 DUP4 ADD DUP5 PUSH2 0x403 JUMP JUMPDEST SWAP3 SWAP2 POP POP JUMP JUMPDEST PUSH1 0x0 DUP3 DUP3 MSTORE PUSH1 0x20 DUP3 ADD SWAP1 POP SWAP3 SWAP2 POP POP JUMP JUMPDEST PUSH1 0x0 PUSH2 0x4A4 DUP3 PUSH2 0x52F JUMP JUMPDEST SWAP2 POP PUSH2 0x4AF DUP4 PUSH2 0x52F JUMP JUMPDEST SWAP3 POP DUP3 PUSH32 0xFFFFFFFFFFFFFFFFFFFFFFFFFFFFFFFFFFFFFFFFFFFFFFFFFFFFFFFFFFFFFFFF SUB DUP3 GT ISZERO PUSH2 0x4E4 JUMPI PUSH2 0x4E3 PUSH2 0x5DB JUMP JUMPDEST JUMPDEST DUP3 DUP3 ADD SWAP1 POP SWAP3 SWAP2 POP POP JUMP JUMPDEST PUSH1 0x0 PUSH2 0x4FA DUP3 PUSH2 0x52F JUMP JUMPDEST SWAP2 POP PUSH2 0x505 DUP4 PUSH2 0x52F JUMP JUMPDEST SWAP3 POP DUP3 DUP3 LT ISZERO PUSH2 0x518 JUMPI PUSH2 0x517 PUSH2 0x5DB JUMP JUMPDEST JUMPDEST DUP3 DUP3 SUB SWAP1 POP SWAP3 SWAP2 POP POP JUMP JUMPDEST PUSH1 0x0 DUP2 ISZERO ISZERO SWAP1 POP SWAP2 SWAP1 POP JUMP JUMPDEST PUSH1 0x0 DUP2 SWAP1 POP SWAP2 SWAP1 POP JUMP JUMPDEST PUSH1 0x0 PUSH2 0x544 DUP3 PUSH2 0x52F JUMP JUMPDEST SWAP2 POP PUSH1 0x0 DUP3 EQ ISZERO PUSH2 0x558 JUMPI PUSH2 0x557 PUSH2 0x5DB JUMP JUMPDEST JUMPDEST PUSH1 0x1 DUP3 SUB SWAP1 POP SWAP2 SWAP1 POP JUMP JUMPDEST PUSH1 0x0 PUSH2 0x56E DUP3 PUSH2 0x52F JUMP JUMPDEST SWAP2 POP PUSH32 0xFFFFFFFFFFFFFFFFFFFFFFFFFFFFFFFFFFFFFFFFFFFFFFFFFFFFFFFFFFFFFFFF DUP3 EQ ISZERO PUSH2 0x5A1 JUMPI PUSH2 0x5A0 PUSH2 0x5DB JUMP JUMPDEST JUMPDEST PUSH1 0x1 DUP3 ADD SWAP1 POP SWAP2 SWAP1 POP JUMP JUMPDEST PUSH32 0x4E487B7100000000000000000000000000000000000000000000000000000000 PUSH1 0x0 MSTORE PUSH1 0x1 PUSH1 0x4 MSTORE PUSH1 0x24 PUSH1 0x0 REVERT JUMPDEST PUSH32 0x4E487B7100000000000000000000000000000000000000000000000000000000 PUSH1 0x0 MSTORE PUSH1 0x11 PUSH1 0x4 MSTORE PUSH1 0x24 PUSH1 0x0 REVERT JUMPDEST PUSH1 0x0 DUP1 REVERT JUMPDEST PUSH32 0x6F6E4F66662069732066616C7365000000000000000000000000000000000000 PUSH1 0x0 DUP3 ADD MSTORE POP JUMP JUMPDEST PUSH32 0x6F6E4F6666206973206E6F742074727565000000000000000000000000000000 PUSH1 0x0 DUP3 ADD MSTORE POP JUMP JUMPDEST PUSH2 0x66A DUP2 PUSH2 0x523 JUMP JUMPDEST DUP2 EQ PUSH2 0x675 JUMPI PUSH1 0x0 DUP1 REVERT JUMPDEST POP JUMP INVALID LOG2 PUSH5 0x6970667358 0x22 SLT KECCAK256 0xD2 DUP16 0xD3 PUSH10 0x2665456882813DAB2AD PUSH10 0x60C81DD9C197C7F7C351 SAR KECCAK256 DUP10 SGT MULMOD 0xBD SWAP3 PUSH5 0x736F6C6343 STOP ADDMOD SMOD STOP CALLER "
				},
				"gasEstimates": {
					"creation": {
						"codeDepositCost": "342000",
						"executionCost": "380",
						"totalCost": "342380"
					},
					"external": {
						"changeOnOff(bool)": "24679",
						"checkOnOff()": "2648",
						"count()": "2430",
						"dec()": "infinite",
						"dec2()": "26745",
						"inc()": "infinite",
						"inc2()": "26700",
						"onOff()": "2537",
						"testRound()": "infinite"
					}
				},
				"methodIdentifiers": {
					"changeOnOff(bool)": "6e4a7f87",
					"checkOnOff()": "7cf1e1ee",
					"count()": "06661abd",
					"dec()": "b3bcfa82",
					"dec2()": "552350aa",
					"inc()": "371303c0",
					"inc2()": "71c9f31c",
					"onOff()": "9ddc4e67",
					"testRound()": "128dbf56"
				}
			},
			"storageLayout": {
				"storage": [
					{
						"astId": 3,
						"contract": "FunctionModifer.sol:FunctionModifer",
						"label": "count",
						"offset": 0,
						"slot": "0",
						"type": "t_uint256"
					},
					{
						"astId": 5,
						"contract": "FunctionModifer.sol:FunctionModifer",
						"label": "onOff",
						"offset": 0,
						"slot": "1",
						"type": "t_bool"
					}
				],
				"types": {
					"t_bool": {
						"encoding": "inplace",
						"label": "bool",
						"numberOfBytes": "1"
					},
					"t_uint256": {
						"encoding": "inplace",
						"label": "uint256",
						"numberOfBytes": "32"
					}
				}
			},
			"userdoc": {
				"kind": "user",
				"methods": {},
				"version": 1
			}
		}
	}
}