{
	"ValueTypes.sol": {
		"ValueTypes": {
			"abi": [
				{
					"inputs": [],
					"name": "addr",
					"outputs": [
						{
							"internalType": "address",
							"name": "",
							"type": "address"
						}
					],
					"stateMutability": "view",
					"type": "function"
				},
				{
					"inputs": [],
					"name": "b",
					"outputs": [
						{
							"internalType": "bool",
							"name": "",
							"type": "bool"
						}
					],
					"stateMutability": "view",
					"type": "function"
				},
				{
					"inputs": [],
					"name": "i",
					"outputs": [
						{
							"internalType": "int256",
							"name": "",
							"type": "int256"
						}
					],
					"stateMutability": "view",
					"type": "function"
				},
				{
					"inputs": [],
					"name": "maxInt",
					"outputs": [
						{
							"internalType": "int256",
							"name": "",
							"type": "int256"
						}
					],
					"stateMutability": "view",
					"type": "function"
				},
				{
					"inputs": [],
					"name": "minInt",
					"outputs": [
						{
							"internalType": "int256",
							"name": "",
							"type": "int256"
						}
					],
					"stateMutability": "view",
					"type": "function"
				},
				{
					"inputs": [],
					"name": "u",
					"outputs": [
						{
							"internalType": "uint256",
							"name": "",
							"type": "uint256"
						}
					],
					"stateMutability": "view",
					"type": "function"
				},
				{
					"inputs": [],
					"name": "u8",
					"outputs": [
						{
							"internalType": "uint8",
							"name": "",
							"type": "uint8"
						}
					],
					"stateMutability": "view",
					"type": "function"
				}
			],
			"devdoc": {
				"kind": "dev",
				"methods": {},
				"version": 1
			},
			"evm": {
				"assembly": "    /* \"ValueTypes.sol\":62:359  contract ValueTypes{\r... */\n  mstore(0x40, 0x80)\n    /* \"ValueTypes.sol\":106:110  true */\n  0x01\n    /* \"ValueTypes.sol\":90:110  bool public b = true */\n  0x00\n  dup1\n  0x0100\n  exp\n  dup2\n  sload\n  dup2\n  0xff\n  mul\n  not\n  and\n  swap1\n  dup4\n  iszero\n  iszero\n  mul\n  or\n  swap1\n  sstore\n  pop\n    /* \"ValueTypes.sol\":138:141  256 */\n  0x0100\n    /* \"ValueTypes.sol\":119:141  uint256 public u = 256 */\n  0x01\n  sstore\n    /* \"ValueTypes.sol\":166:169  255 */\n  0xff\n    /* \"ValueTypes.sol\":148:169  uint8 public u8 = 255 */\n  0x02\n  exp(0x0100, 0x00)\n  dup2\n  sload\n  dup2\n  0xff\n  mul\n  not\n  and\n  swap1\n  dup4\n  0xff\n  and\n  mul\n  or\n  swap1\n  sstore\n  pop\n    /* \"ValueTypes.sol\":193:196  255 */\n  0xff\n    /* \"ValueTypes.sol\":178:196  int public i = 255 */\n  0x03\n  sstore\n    /* \"ValueTypes.sol\":225:238  type(int).min */\n  0x8000000000000000000000000000000000000000000000000000000000000000\n    /* \"ValueTypes.sol\":205:238  int public minInt = type(int).min */\n  0x04\n  sstore\n    /* \"ValueTypes.sol\":265:278  type(int).max */\n  0x7fffffffffffffffffffffffffffffffffffffffffffffffffffffffffffffff\n    /* \"ValueTypes.sol\":245:278  int public maxInt = type(int).max */\n  0x05\n  sstore\n    /* \"ValueTypes.sol\":309:351  0x5B38Da6a701c568545dCfcB03FcB875f56beddC4 */\n  0x5b38da6a701c568545dcfcb03fcb875f56beddc4\n    /* \"ValueTypes.sol\":287:351  address public addr = 0x5B38Da6a701c568545dCfcB03FcB875f56beddC4 */\n  0x06\n  exp(0x0100, 0x00)\n  dup2\n  sload\n  dup2\n  0xffffffffffffffffffffffffffffffffffffffff\n  mul\n  not\n  and\n  swap1\n  dup4\n  0xffffffffffffffffffffffffffffffffffffffff\n  and\n  mul\n  or\n  swap1\n  sstore\n  pop\n    /* \"ValueTypes.sol\":62:359  contract ValueTypes{\r... */\n  callvalue\n  dup1\n  iszero\n  tag_1\n  jumpi\n  0x00\n  dup1\n  revert\ntag_1:\n  pop\n  dataSize(sub_0)\n  dup1\n  dataOffset(sub_0)\n  0x00\n  codecopy\n  0x00\n  return\nstop\n\nsub_0: assembly {\n        /* \"ValueTypes.sol\":62:359  contract ValueTypes{\r... */\n      mstore(0x40, 0x80)\n      callvalue\n      dup1\n      iszero\n      tag_1\n      jumpi\n      0x00\n      dup1\n      revert\n    tag_1:\n      pop\n      jumpi(tag_2, lt(calldatasize, 0x04))\n      shr(0xe0, calldataload(0x00))\n      dup1\n      0x7e4e14cc\n      gt\n      tag_10\n      jumpi\n      dup1\n      0x7e4e14cc\n      eq\n      tag_6\n      jumpi\n      dup1\n      0xab3a58a3\n      eq\n      tag_7\n      jumpi\n      dup1\n      0xc6a898c5\n      eq\n      tag_8\n      jumpi\n      dup1\n      0xe5aa3d58\n      eq\n      tag_9\n      jumpi\n      jump(tag_2)\n    tag_10:\n      dup1\n      0x4df7e3d0\n      eq\n      tag_3\n      jumpi\n      dup1\n      0x767800de\n      eq\n      tag_4\n      jumpi\n      dup1\n      0x7a4c2571\n      eq\n      tag_5\n      jumpi\n    tag_2:\n      0x00\n      dup1\n      revert\n        /* \"ValueTypes.sol\":90:110  bool public b = true */\n    tag_3:\n      tag_11\n      tag_12\n      jump\t// in\n    tag_11:\n      mload(0x40)\n      tag_13\n      swap2\n      swap1\n      tag_14\n      jump\t// in\n    tag_13:\n      mload(0x40)\n      dup1\n      swap2\n      sub\n      swap1\n      return\n        /* \"ValueTypes.sol\":287:351  address public addr = 0x5B38Da6a701c568545dCfcB03FcB875f56beddC4 */\n    tag_4:\n      tag_15\n      tag_16\n      jump\t// in\n    tag_15:\n      mload(0x40)\n      tag_17\n      swap2\n      swap1\n      tag_18\n      jump\t// in\n    tag_17:\n      mload(0x40)\n      dup1\n      swap2\n      sub\n      swap1\n      return\n        /* \"ValueTypes.sol\":245:278  int public maxInt = type(int).max */\n    tag_5:\n      tag_19\n      tag_20\n      jump\t// in\n    tag_19:\n      mload(0x40)\n      tag_21\n      swap2\n      swap1\n      tag_22\n      jump\t// in\n    tag_21:\n      mload(0x40)\n      dup1\n      swap2\n      sub\n      swap1\n      return\n        /* \"ValueTypes.sol\":205:238  int public minInt = type(int).min */\n    tag_6:\n      tag_23\n      tag_24\n      jump\t// in\n    tag_23:\n      mload(0x40)\n      tag_25\n      swap2\n      swap1\n      tag_22\n      jump\t// in\n    tag_25:\n      mload(0x40)\n      dup1\n      swap2\n      sub\n      swap1\n      return\n        /* \"ValueTypes.sol\":148:169  uint8 public u8 = 255 */\n    tag_7:\n      tag_26\n      tag_27\n      jump\t// in\n    tag_26:\n      mload(0x40)\n      tag_28\n      swap2\n      swap1\n      tag_29\n      jump\t// in\n    tag_28:\n      mload(0x40)\n      dup1\n      swap2\n      sub\n      swap1\n      return\n        /* \"ValueTypes.sol\":119:141  uint256 public u = 256 */\n    tag_8:\n      tag_30\n      tag_31\n      jump\t// in\n    tag_30:\n      mload(0x40)\n      tag_32\n      swap2\n      swap1\n      tag_33\n      jump\t// in\n    tag_32:\n      mload(0x40)\n      dup1\n      swap2\n      sub\n      swap1\n      return\n        /* \"ValueTypes.sol\":178:196  int public i = 255 */\n    tag_9:\n      tag_34\n      tag_35\n      jump\t// in\n    tag_34:\n      mload(0x40)\n      tag_36\n      swap2\n      swap1\n      tag_22\n      jump\t// in\n    tag_36:\n      mload(0x40)\n      dup1\n      swap2\n      sub\n      swap1\n      return\n        /* \"ValueTypes.sol\":90:110  bool public b = true */\n    tag_12:\n      0x00\n      dup1\n      sload\n      swap1\n      0x0100\n      exp\n      swap1\n      div\n      0xff\n      and\n      dup2\n      jump\t// out\n        /* \"ValueTypes.sol\":287:351  address public addr = 0x5B38Da6a701c568545dCfcB03FcB875f56beddC4 */\n    tag_16:\n      0x06\n      0x00\n      swap1\n      sload\n      swap1\n      0x0100\n      exp\n      swap1\n      div\n      0xffffffffffffffffffffffffffffffffffffffff\n      and\n      dup2\n      jump\t// out\n        /* \"ValueTypes.sol\":245:278  int public maxInt = type(int).max */\n    tag_20:\n      sload(0x05)\n      dup2\n      jump\t// out\n        /* \"ValueTypes.sol\":205:238  int public minInt = type(int).min */\n    tag_24:\n      sload(0x04)\n      dup2\n      jump\t// out\n        /* \"ValueTypes.sol\":148:169  uint8 public u8 = 255 */\n    tag_27:\n      0x02\n      0x00\n      swap1\n      sload\n      swap1\n      0x0100\n      exp\n      swap1\n      div\n      0xff\n      and\n      dup2\n      jump\t// out\n        /* \"ValueTypes.sol\":119:141  uint256 public u = 256 */\n    tag_31:\n      sload(0x01)\n      dup2\n      jump\t// out\n        /* \"ValueTypes.sol\":178:196  int public i = 255 */\n    tag_35:\n      sload(0x03)\n      dup2\n      jump\t// out\n        /* \"#utility.yul\":7:125   */\n    tag_38:\n        /* \"#utility.yul\":94:118   */\n      tag_40\n        /* \"#utility.yul\":112:117   */\n      dup2\n        /* \"#utility.yul\":94:118   */\n      tag_41\n      jump\t// in\n    tag_40:\n        /* \"#utility.yul\":89:92   */\n      dup3\n        /* \"#utility.yul\":82:119   */\n      mstore\n        /* \"#utility.yul\":7:125   */\n      pop\n      pop\n      jump\t// out\n        /* \"#utility.yul\":131:240   */\n    tag_42:\n        /* \"#utility.yul\":212:233   */\n      tag_44\n        /* \"#utility.yul\":227:232   */\n      dup2\n        /* \"#utility.yul\":212:233   */\n      tag_45\n      jump\t// in\n    tag_44:\n        /* \"#utility.yul\":207:210   */\n      dup3\n        /* \"#utility.yul\":200:234   */\n      mstore\n        /* \"#utility.yul\":131:240   */\n      pop\n      pop\n      jump\t// out\n        /* \"#utility.yul\":246:361   */\n    tag_46:\n        /* \"#utility.yul\":331:354   */\n      tag_48\n        /* \"#utility.yul\":348:353   */\n      dup2\n        /* \"#utility.yul\":331:354   */\n      tag_49\n      jump\t// in\n    tag_48:\n        /* \"#utility.yul\":326:329   */\n      dup3\n        /* \"#utility.yul\":319:355   */\n      mstore\n        /* \"#utility.yul\":246:361   */\n      pop\n      pop\n      jump\t// out\n        /* \"#utility.yul\":367:485   */\n    tag_50:\n        /* \"#utility.yul\":454:478   */\n      tag_52\n        /* \"#utility.yul\":472:477   */\n      dup2\n        /* \"#utility.yul\":454:478   */\n      tag_53\n      jump\t// in\n    tag_52:\n        /* \"#utility.yul\":449:452   */\n      dup3\n        /* \"#utility.yul\":442:479   */\n      mstore\n        /* \"#utility.yul\":367:485   */\n      pop\n      pop\n      jump\t// out\n        /* \"#utility.yul\":491:603   */\n    tag_54:\n        /* \"#utility.yul\":574:596   */\n      tag_56\n        /* \"#utility.yul\":590:595   */\n      dup2\n        /* \"#utility.yul\":574:596   */\n      tag_57\n      jump\t// in\n    tag_56:\n        /* \"#utility.yul\":569:572   */\n      dup3\n        /* \"#utility.yul\":562:597   */\n      mstore\n        /* \"#utility.yul\":491:603   */\n      pop\n      pop\n      jump\t// out\n        /* \"#utility.yul\":609:831   */\n    tag_18:\n        /* \"#utility.yul\":702:706   */\n      0x00\n        /* \"#utility.yul\":740:742   */\n      0x20\n        /* \"#utility.yul\":729:738   */\n      dup3\n        /* \"#utility.yul\":725:743   */\n      add\n        /* \"#utility.yul\":717:743   */\n      swap1\n      pop\n        /* \"#utility.yul\":753:824   */\n      tag_59\n        /* \"#utility.yul\":821:822   */\n      0x00\n        /* \"#utility.yul\":810:819   */\n      dup4\n        /* \"#utility.yul\":806:823   */\n      add\n        /* \"#utility.yul\":797:803   */\n      dup5\n        /* \"#utility.yul\":753:824   */\n      tag_38\n      jump\t// in\n    tag_59:\n        /* \"#utility.yul\":609:831   */\n      swap3\n      swap2\n      pop\n      pop\n      jump\t// out\n        /* \"#utility.yul\":837:1047   */\n    tag_14:\n        /* \"#utility.yul\":924:928   */\n      0x00\n        /* \"#utility.yul\":962:964   */\n      0x20\n        /* \"#utility.yul\":951:960   */\n      dup3\n        /* \"#utility.yul\":947:965   */\n      add\n        /* \"#utility.yul\":939:965   */\n      swap1\n      pop\n        /* \"#utility.yul\":975:1040   */\n      tag_61\n        /* \"#utility.yul\":1037:1038   */\n      0x00\n        /* \"#utility.yul\":1026:1035   */\n      dup4\n        /* \"#utility.yul\":1022:1039   */\n      add\n        /* \"#utility.yul\":1013:1019   */\n      dup5\n        /* \"#utility.yul\":975:1040   */\n      tag_42\n      jump\t// in\n    tag_61:\n        /* \"#utility.yul\":837:1047   */\n      swap3\n      swap2\n      pop\n      pop\n      jump\t// out\n        /* \"#utility.yul\":1053:1271   */\n    tag_22:\n        /* \"#utility.yul\":1144:1148   */\n      0x00\n        /* \"#utility.yul\":1182:1184   */\n      0x20\n        /* \"#utility.yul\":1171:1180   */\n      dup3\n        /* \"#utility.yul\":1167:1185   */\n      add\n        /* \"#utility.yul\":1159:1185   */\n      swap1\n      pop\n        /* \"#utility.yul\":1195:1264   */\n      tag_63\n        /* \"#utility.yul\":1261:1262   */\n      0x00\n        /* \"#utility.yul\":1250:1259   */\n      dup4\n        /* \"#utility.yul\":1246:1263   */\n      add\n        /* \"#utility.yul\":1237:1243   */\n      dup5\n        /* \"#utility.yul\":1195:1264   */\n      tag_46\n      jump\t// in\n    tag_63:\n        /* \"#utility.yul\":1053:1271   */\n      swap3\n      swap2\n      pop\n      pop\n      jump\t// out\n        /* \"#utility.yul\":1277:1499   */\n    tag_33:\n        /* \"#utility.yul\":1370:1374   */\n      0x00\n        /* \"#utility.yul\":1408:1410   */\n      0x20\n        /* \"#utility.yul\":1397:1406   */\n      dup3\n        /* \"#utility.yul\":1393:1411   */\n      add\n        /* \"#utility.yul\":1385:1411   */\n      swap1\n      pop\n        /* \"#utility.yul\":1421:1492   */\n      tag_65\n        /* \"#utility.yul\":1489:1490   */\n      0x00\n        /* \"#utility.yul\":1478:1487   */\n      dup4\n        /* \"#utility.yul\":1474:1491   */\n      add\n        /* \"#utility.yul\":1465:1471   */\n      dup5\n        /* \"#utility.yul\":1421:1492   */\n      tag_50\n      jump\t// in\n    tag_65:\n        /* \"#utility.yul\":1277:1499   */\n      swap3\n      swap2\n      pop\n      pop\n      jump\t// out\n        /* \"#utility.yul\":1505:1719   */\n    tag_29:\n        /* \"#utility.yul\":1594:1598   */\n      0x00\n        /* \"#utility.yul\":1632:1634   */\n      0x20\n        /* \"#utility.yul\":1621:1630   */\n      dup3\n        /* \"#utility.yul\":1617:1635   */\n      add\n        /* \"#utility.yul\":1609:1635   */\n      swap1\n      pop\n        /* \"#utility.yul\":1645:1712   */\n      tag_67\n        /* \"#utility.yul\":1709:1710   */\n      0x00\n        /* \"#utility.yul\":1698:1707   */\n      dup4\n        /* \"#utility.yul\":1694:1711   */\n      add\n        /* \"#utility.yul\":1685:1691   */\n      dup5\n        /* \"#utility.yul\":1645:1712   */\n      tag_54\n      jump\t// in\n    tag_67:\n        /* \"#utility.yul\":1505:1719   */\n      swap3\n      swap2\n      pop\n      pop\n      jump\t// out\n        /* \"#utility.yul\":1725:1821   */\n    tag_41:\n        /* \"#utility.yul\":1762:1769   */\n      0x00\n        /* \"#utility.yul\":1791:1815   */\n      tag_69\n        /* \"#utility.yul\":1809:1814   */\n      dup3\n        /* \"#utility.yul\":1791:1815   */\n      tag_70\n      jump\t// in\n    tag_69:\n        /* \"#utility.yul\":1780:1815   */\n      swap1\n      pop\n        /* \"#utility.yul\":1725:1821   */\n      swap2\n      swap1\n      pop\n      jump\t// out\n        /* \"#utility.yul\":1827:1917   */\n    tag_45:\n        /* \"#utility.yul\":1861:1868   */\n      0x00\n        /* \"#utility.yul\":1904:1909   */\n      dup2\n        /* \"#utility.yul\":1897:1910   */\n      iszero\n        /* \"#utility.yul\":1890:1911   */\n      iszero\n        /* \"#utility.yul\":1879:1911   */\n      swap1\n      pop\n        /* \"#utility.yul\":1827:1917   */\n      swap2\n      swap1\n      pop\n      jump\t// out\n        /* \"#utility.yul\":1923:1999   */\n    tag_49:\n        /* \"#utility.yul\":1959:1966   */\n      0x00\n        /* \"#utility.yul\":1988:1993   */\n      dup2\n        /* \"#utility.yul\":1977:1993   */\n      swap1\n      pop\n        /* \"#utility.yul\":1923:1999   */\n      swap2\n      swap1\n      pop\n      jump\t// out\n        /* \"#utility.yul\":2005:2131   */\n    tag_70:\n        /* \"#utility.yul\":2042:2049   */\n      0x00\n        /* \"#utility.yul\":2082:2124   */\n      0xffffffffffffffffffffffffffffffffffffffff\n        /* \"#utility.yul\":2075:2080   */\n      dup3\n        /* \"#utility.yul\":2071:2125   */\n      and\n        /* \"#utility.yul\":2060:2125   */\n      swap1\n      pop\n        /* \"#utility.yul\":2005:2131   */\n      swap2\n      swap1\n      pop\n      jump\t// out\n        /* \"#utility.yul\":2137:2214   */\n    tag_53:\n        /* \"#utility.yul\":2174:2181   */\n      0x00\n        /* \"#utility.yul\":2203:2208   */\n      dup2\n        /* \"#utility.yul\":2192:2208   */\n      swap1\n      pop\n        /* \"#utility.yul\":2137:2214   */\n      swap2\n      swap1\n      pop\n      jump\t// out\n        /* \"#utility.yul\":2220:2306   */\n    tag_57:\n        /* \"#utility.yul\":2255:2262   */\n      0x00\n        /* \"#utility.yul\":2295:2299   */\n      0xff\n        /* \"#utility.yul\":2288:2293   */\n      dup3\n        /* \"#utility.yul\":2284:2300   */\n      and\n        /* \"#utility.yul\":2273:2300   */\n      swap1\n      pop\n        /* \"#utility.yul\":2220:2306   */\n      swap2\n      swap1\n      pop\n      jump\t// out\n\n    auxdata: 0xa2646970667358221220fef122aa42a078afb1bcf4b658de5556f93ee69ede51daa997a8f15bd31be5b764736f6c63430008070033\n}\n",
				"bytecode": {
					"linkReferences": {},
					"object": "608060405260016000806101000a81548160ff02191690831515021790555061010060015560ff600260006101000a81548160ff021916908360ff16021790555060ff6003557f80000000000000000000000000000000000000000000000000000000000000006004557f7fffffffffffffffffffffffffffffffffffffffffffffffffffffffffffffff600555735b38da6a701c568545dcfcb03fcb875f56beddc4600660006101000a81548173ffffffffffffffffffffffffffffffffffffffff021916908373ffffffffffffffffffffffffffffffffffffffff1602179055503480156100ee57600080fd5b5061031d806100fe6000396000f3fe608060405234801561001057600080fd5b506004361061007d5760003560e01c80637e4e14cc1161005b5780637e4e14cc146100dc578063ab3a58a3146100fa578063c6a898c514610118578063e5aa3d58146101365761007d565b80634df7e3d014610082578063767800de146100a05780637a4c2571146100be575b600080fd5b61008a610154565b604051610097919061021c565b60405180910390f35b6100a8610165565b6040516100b59190610201565b60405180910390f35b6100c661018b565b6040516100d39190610237565b60405180910390f35b6100e4610191565b6040516100f19190610237565b60405180910390f35b610102610197565b60405161010f919061026d565b60405180910390f35b6101206101aa565b60405161012d9190610252565b60405180910390f35b61013e6101b0565b60405161014b9190610237565b60405180910390f35b60008054906101000a900460ff1681565b600660009054906101000a900473ffffffffffffffffffffffffffffffffffffffff1681565b60055481565b60045481565b600260009054906101000a900460ff1681565b60015481565b60035481565b6101bf81610288565b82525050565b6101ce8161029a565b82525050565b6101dd816102a6565b82525050565b6101ec816102d0565b82525050565b6101fb816102da565b82525050565b600060208201905061021660008301846101b6565b92915050565b600060208201905061023160008301846101c5565b92915050565b600060208201905061024c60008301846101d4565b92915050565b600060208201905061026760008301846101e3565b92915050565b600060208201905061028260008301846101f2565b92915050565b6000610293826102b0565b9050919050565b60008115159050919050565b6000819050919050565b600073ffffffffffffffffffffffffffffffffffffffff82169050919050565b6000819050919050565b600060ff8216905091905056fea2646970667358221220fef122aa42a078afb1bcf4b658de5556f93ee69ede51daa997a8f15bd31be5b764736f6c63430008070033",
					"opcodes": "PUSH1 0x80 PUSH1 0x40 MSTORE PUSH1 0x1 PUSH1 0x0 DUP1 PUSH2 0x100 EXP DUP2 SLOAD DUP2 PUSH1 0xFF MUL NOT AND SWAP1 DUP4 ISZERO ISZERO MUL OR SWAP1 SSTORE POP PUSH2 0x100 PUSH1 0x1 SSTORE PUSH1 0xFF PUSH1 0x2 PUSH1 0x0 PUSH2 0x100 EXP DUP2 SLOAD DUP2 PUSH1 0xFF MUL NOT AND SWAP1 DUP4 PUSH1 0xFF AND MUL OR SWAP1 SSTORE POP PUSH1 0xFF PUSH1 0x3 SSTORE PUSH32 0x8000000000000000000000000000000000000000000000000000000000000000 PUSH1 0x4 SSTORE PUSH32 0x7FFFFFFFFFFFFFFFFFFFFFFFFFFFFFFFFFFFFFFFFFFFFFFFFFFFFFFFFFFFFFFF PUSH1 0x5 SSTORE PUSH20 0x5B38DA6A701C568545DCFCB03FCB875F56BEDDC4 PUSH1 0x6 PUSH1 0x0 PUSH2 0x100 EXP DUP2 SLOAD DUP2 PUSH20 0xFFFFFFFFFFFFFFFFFFFFFFFFFFFFFFFFFFFFFFFF MUL NOT AND SWAP1 DUP4 PUSH20 0xFFFFFFFFFFFFFFFFFFFFFFFFFFFFFFFFFFFFFFFF AND MUL OR SWAP1 SSTORE POP CALLVALUE DUP1 ISZERO PUSH2 0xEE JUMPI PUSH1 0x0 DUP1 REVERT JUMPDEST POP PUSH2 0x31D DUP1 PUSH2 0xFE PUSH1 0x0 CODECOPY PUSH1 0x0 RETURN INVALID PUSH1 0x80 PUSH1 0x40 MSTORE CALLVALUE DUP1 ISZERO PUSH2 0x10 JUMPI PUSH1 0x0 DUP1 REVERT JUMPDEST POP PUSH1 0x4 CALLDATASIZE LT PUSH2 0x7D JUMPI PUSH1 0x0 CALLDATALOAD PUSH1 0xE0 SHR DUP1 PUSH4 0x7E4E14CC GT PUSH2 0x5B JUMPI DUP1 PUSH4 0x7E4E14CC EQ PUSH2 0xDC JUMPI DUP1 PUSH4 0xAB3A58A3 EQ PUSH2 0xFA JUMPI DUP1 PUSH4 0xC6A898C5 EQ PUSH2 0x118 JUMPI DUP1 PUSH4 0xE5AA3D58 EQ PUSH2 0x136 JUMPI PUSH2 0x7D JUMP JUMPDEST DUP1 PUSH4 0x4DF7E3D0 EQ PUSH2 0x82 JUMPI DUP1 PUSH4 0x767800DE EQ PUSH2 0xA0 JUMPI DUP1 PUSH4 0x7A4C2571 EQ PUSH2 0xBE JUMPI JUMPDEST PUSH1 0x0 DUP1 REVERT JUMPDEST PUSH2 0x8A PUSH2 0x154 JUMP JUMPDEST PUSH1 0x40 MLOAD PUSH2 0x97 SWAP2 SWAP1 PUSH2 0x21C JUMP JUMPDEST PUSH1 0x40 MLOAD DUP1 SWAP2 SUB SWAP1 RETURN JUMPDEST PUSH2 0xA8 PUSH2 0x165 JUMP JUMPDEST PUSH1 0x40 MLOAD PUSH2 0xB5 SWAP2 SWAP1 PUSH2 0x201 JUMP JUMPDEST PUSH1 0x40 MLOAD DUP1 SWAP2 SUB SWAP1 RETURN JUMPDEST PUSH2 0xC6 PUSH2 0x18B JUMP JUMPDEST PUSH1 0x40 MLOAD PUSH2 0xD3 SWAP2 SWAP1 PUSH2 0x237 JUMP JUMPDEST PUSH1 0x40 MLOAD DUP1 SWAP2 SUB SWAP1 RETURN JUMPDEST PUSH2 0xE4 PUSH2 0x191 JUMP JUMPDEST PUSH1 0x40 MLOAD PUSH2 0xF1 SWAP2 SWAP1 PUSH2 0x237 JUMP JUMPDEST PUSH1 0x40 MLOAD DUP1 SWAP2 SUB SWAP1 RETURN JUMPDEST PUSH2 0x102 PUSH2 0x197 JUMP JUMPDEST PUSH1 0x40 MLOAD PUSH2 0x10F SWAP2 SWAP1 PUSH2 0x26D JUMP JUMPDEST PUSH1 0x40 MLOAD DUP1 SWAP2 SUB SWAP1 RETURN JUMPDEST PUSH2 0x120 PUSH2 0x1AA JUMP JUMPDEST PUSH1 0x40 MLOAD PUSH2 0x12D SWAP2 SWAP1 PUSH2 0x252 JUMP JUMPDEST PUSH1 0x40 MLOAD DUP1 SWAP2 SUB SWAP1 RETURN JUMPDEST PUSH2 0x13E PUSH2 0x1B0 JUMP JUMPDEST PUSH1 0x40 MLOAD PUSH2 0x14B SWAP2 SWAP1 PUSH2 0x237 JUMP JUMPDEST PUSH1 0x40 MLOAD DUP1 SWAP2 SUB SWAP1 RETURN JUMPDEST PUSH1 0x0 DUP1 SLOAD SWAP1 PUSH2 0x100 EXP SWAP1 DIV PUSH1 0xFF AND DUP2 JUMP JUMPDEST PUSH1 0x6 PUSH1 0x0 SWAP1 SLOAD SWAP1 PUSH2 0x100 EXP SWAP1 DIV PUSH20 0xFFFFFFFFFFFFFFFFFFFFFFFFFFFFFFFFFFFFFFFF AND DUP2 JUMP JUMPDEST PUSH1 0x5 SLOAD DUP2 JUMP JUMPDEST PUSH1 0x4 SLOAD DUP2 JUMP JUMPDEST PUSH1 0x2 PUSH1 0x0 SWAP1 SLOAD SWAP1 PUSH2 0x100 EXP SWAP1 DIV PUSH1 0xFF AND DUP2 JUMP JUMPDEST PUSH1 0x1 SLOAD DUP2 JUMP JUMPDEST PUSH1 0x3 SLOAD DUP2 JUMP JUMPDEST PUSH2 0x1BF DUP2 PUSH2 0x288 JUMP JUMPDEST DUP3 MSTORE POP POP JUMP JUMPDEST PUSH2 0x1CE DUP2 PUSH2 0x29A JUMP JUMPDEST DUP3 MSTORE POP POP JUMP JUMPDEST PUSH2 0x1DD DUP2 PUSH2 0x2A6 JUMP JUMPDEST DUP3 MSTORE POP POP JUMP JUMPDEST PUSH2 0x1EC DUP2 PUSH2 0x2D0 JUMP JUMPDEST DUP3 MSTORE POP POP JUMP JUMPDEST PUSH2 0x1FB DUP2 PUSH2 0x2DA JUMP JUMPDEST DUP3 MSTORE POP POP JUMP JUMPDEST PUSH1 0x0 PUSH1 0x20 DUP3 ADD SWAP1 POP PUSH2 0x216 PUSH1 0x0 DUP4 ADD DUP5 PUSH2 0x1B6 JUMP JUMPDEST SWAP3 SWAP2 POP POP JUMP JUMPDEST PUSH1 0x0 PUSH1 0x20 DUP3 ADD SWAP1 POP PUSH2 0x231 PUSH1 0x0 DUP4 ADD DUP5 PUSH2 0x1C5 JUMP JUMPDEST SWAP3 SWAP2 POP POP JUMP JUMPDEST PUSH1 0x0 PUSH1 0x20 DUP3 ADD SWAP1 POP PUSH2 0x24C PUSH1 0x0 DUP4 ADD DUP5 PUSH2 0x1D4 JUMP JUMPDEST SWAP3 SWAP2 POP POP JUMP JUMPDEST PUSH1 0x0 PUSH1 0x20 DUP3 ADD SWAP1 POP PUSH2 0x267 PUSH1 0x0 DUP4 ADD DUP5 PUSH2 0x1E3 JUMP JUMPDEST SWAP3 SWAP2 POP POP JUMP JUMPDEST PUSH1 0x0 PUSH1 0x20 DUP3 ADD SWAP1 POP PUSH2 0x282 PUSH1 0x0 DUP4 ADD DUP5 PUSH2 0x1F2 JUMP JUMPDEST SWAP3 SWAP2 POP POP JUMP JUMPDEST PUSH1 0x0 PUSH2 0x293 DUP3 PUSH2 0x2B0 JUMP JUMPDEST SWAP1 POP SWAP2 SWAP1 POP JUMP JUMPDEST PUSH1 0x0 DUP2 ISZERO ISZERO SWAP1 POP SWAP2 SWAP1 POP JUMP JUMPDEST PUSH1 0x0 DUP2 SWAP1 POP SWAP2 SWAP1 POP JUMP JUMPDEST PUSH1 0x0 PUSH20 0xFFFFFFFFFFFFFFFFFFFFFFFFFFFFFFFFFFFFFFFF DUP3 AND SWAP1 POP SWAP2 SWAP1 POP JUMP JUMPDEST PUSH1 0x0 DUP2 SWAP1 POP SWAP2 SWAP1 POP JUMP JUMPDEST PUSH1 0x0 PUSH1 0xFF DUP3 AND SWAP1 POP SWAP2 SWAP1 POP JUMP INVALID LOG2 PUSH5 0x6970667358 0x22 SLT KECCAK256 INVALID CALL 0x22 0xAA TIMESTAMP LOG0 PUSH25 0xAFB1BCF4B658DE5556F93EE69EDE51DAA997A8F15BD31BE5B7 PUSH5 0x736F6C6343 STOP ADDMOD SMOD STOP CALLER "
				},
				"gasEstimates": {
					"creation": {
						"codeDepositCost": "159400",
						"executionCost": "161427",
						"totalCost": "320827"
					},
					"external": {
						"addr()": "2537",
						"b()": "2469",
						"i()": "2495",
						"maxInt()": "2474",
						"minInt()": "2429",
						"u()": "2473",
						"u8()": "2493"
					}
				},
				"methodIdentifiers": {
					"addr()": "767800de",
					"b()": "4df7e3d0",
					"i()": "e5aa3d58",
					"maxInt()": "7a4c2571",
					"minInt()": "7e4e14cc",
					"u()": "c6a898c5",
					"u8()": "ab3a58a3"
				}
			},
			"storageLayout": {
				"storage": [
					{
						"astId": 4,
						"contract": "ValueTypes.sol:ValueTypes",
						"label": "b",
						"offset": 0,
						"slot": "0",
						"type": "t_bool"
					},
					{
						"astId": 7,
						"contract": "ValueTypes.sol:ValueTypes",
						"label": "u",
						"offset": 0,
						"slot": "1",
						"type": "t_uint256"
					},
					{
						"astId": 10,
						"contract": "ValueTypes.sol:ValueTypes",
						"label": "u8",
						"offset": 0,
						"slot": "2",
						"type": "t_uint8"
					},
					{
						"astId": 13,
						"contract": "ValueTypes.sol:ValueTypes",
						"label": "i",
						"offset": 0,
						"slot": "3",
						"type": "t_int256"
					},
					{
						"astId": 20,
						"contract": "ValueTypes.sol:ValueTypes",
						"label": "minInt",
						"offset": 0,
						"slot": "4",
						"type": "t_int256"
					},
					{
						"astId": 27,
						"contract": "ValueTypes.sol:ValueTypes",
						"label": "maxInt",
						"offset": 0,
						"slot": "5",
						"type": "t_int256"
					},
					{
						"astId": 30,
						"contract": "ValueTypes.sol:ValueTypes",
						"label": "addr",
						"offset": 0,
						"slot": "6",
						"type": "t_address"
					}
				],
				"types": {
					"t_address": {
						"encoding": "inplace",
						"label": "address",
						"numberOfBytes": "20"
					},
					"t_bool": {
						"encoding": "inplace",
						"label": "bool",
						"numberOfBytes": "1"
					},
					"t_int256": {
						"encoding": "inplace",
						"label": "int256",
						"numberOfBytes": "32"
					},
					"t_uint256": {
						"encoding": "inplace",
						"label": "uint256",
						"numberOfBytes": "32"
					},
					"t_uint8": {
						"encoding": "inplace",
						"label": "uint8",
						"numberOfBytes": "1"
					}
				}
			},
			"userdoc": {
				"kind": "user",
				"methods": {},
				"version": 1
			}
		}
	}
}