{
	"Errors.sol": {
		"Errors": {
			"abi": [
				{
					"inputs": [
						{
							"internalType": "address",
							"name": "caller",
							"type": "address"
						},
						{
							"internalType": "uint256",
							"name": "i",
							"type": "uint256"
						}
					],
					"name": "MyError",
					"type": "error"
				},
				{
					"inputs": [
						{
							"internalType": "uint256",
							"name": "x",
							"type": "uint256"
						}
					],
					"name": "customError",
					"outputs": [],
					"stateMutability": "view",
					"type": "function"
				},
				{
					"inputs": [
						{
							"internalType": "uint256",
							"name": "x",
							"type": "uint256"
						}
					],
					"name": "testAssert",
					"outputs": [],
					"stateMutability": "pure",
					"type": "function"
				},
				{
					"inputs": [
						{
							"internalType": "uint256",
							"name": "x",
							"type": "uint256"
						}
					],
					"name": "testRequire",
					"outputs": [],
					"stateMutability": "pure",
					"type": "function"
				},
				{
					"inputs": [
						{
							"internalType": "uint256",
							"name": "x",
							"type": "uint256"
						}
					],
					"name": "testRevert",
					"outputs": [],
					"stateMutability": "pure",
					"type": "function"
				}
			],
			"devdoc": {
				"kind": "dev",
				"methods": {},
				"version": 1
			},
			"evm": {
				"assembly": "    /* \"Errors.sol\":60:636  contract Errors{\r... */\n  mstore(0x40, 0x80)\n  callvalue\n  dup1\n  iszero\n  tag_1\n  jumpi\n  0x00\n  dup1\n  revert\ntag_1:\n  pop\n  dataSize(sub_0)\n  dup1\n  dataOffset(sub_0)\n  0x00\n  codecopy\n  0x00\n  return\nstop\n\nsub_0: assembly {\n        /* \"Errors.sol\":60:636  contract Errors{\r... */\n      mstore(0x40, 0x80)\n      callvalue\n      dup1\n      iszero\n      tag_1\n      jumpi\n      0x00\n      dup1\n      revert\n    tag_1:\n      pop\n      jumpi(tag_2, lt(calldatasize, 0x04))\n      shr(0xe0, calldataload(0x00))\n      dup1\n      0x20987767\n      eq\n      tag_3\n      jumpi\n      dup1\n      0x246ce3f9\n      eq\n      tag_4\n      jumpi\n      dup1\n      0x2509f77c\n      eq\n      tag_5\n      jumpi\n      dup1\n      0xb8bd717f\n      eq\n      tag_6\n      jumpi\n    tag_2:\n      0x00\n      dup1\n      revert\n        /* \"Errors.sol\":253:363  function testRevert(uint x) public pure{\r... */\n    tag_3:\n      tag_7\n      0x04\n      dup1\n      calldatasize\n      sub\n      dup2\n      add\n      swap1\n      tag_8\n      swap2\n      swap1\n      tag_9\n      jump\t// in\n    tag_8:\n      tag_10\n      jump\t// in\n    tag_7:\n      stop\n        /* \"Errors.sol\":391:464  function testAssert(uint x) public pure{\r... */\n    tag_4:\n      tag_11\n      0x04\n      dup1\n      calldatasize\n      sub\n      dup2\n      add\n      swap1\n      tag_12\n      swap2\n      swap1\n      tag_9\n      jump\t// in\n    tag_12:\n      tag_13\n      jump\t// in\n    tag_11:\n      stop\n        /* \"Errors.sol\":546:633  function customError(uint x) public view{\r... */\n    tag_5:\n      tag_14\n      0x04\n      dup1\n      calldatasize\n      sub\n      dup2\n      add\n      swap1\n      tag_15\n      swap2\n      swap1\n      tag_9\n      jump\t// in\n    tag_15:\n      tag_16\n      jump\t// in\n    tag_14:\n      stop\n        /* \"Errors.sol\":122:207  function testRequire(uint x ) public pure{\r... */\n    tag_6:\n      tag_17\n      0x04\n      dup1\n      calldatasize\n      sub\n      dup2\n      add\n      swap1\n      tag_18\n      swap2\n      swap1\n      tag_9\n      jump\t// in\n    tag_18:\n      tag_19\n      jump\t// in\n    tag_17:\n      stop\n        /* \"Errors.sol\":253:363  function testRevert(uint x) public pure{\r... */\n    tag_10:\n        /* \"Errors.sol\":310:312  10 */\n      0x0a\n        /* \"Errors.sol\":306:307  x */\n      dup2\n        /* \"Errors.sol\":306:312  x < 10 */\n      lt\n        /* \"Errors.sol\":303:356  if(x < 10){\r... */\n      iszero\n      tag_21\n      jumpi\n        /* \"Errors.sol\":328:344  revert(\"x < 10\") */\n      mload(0x40)\n      0x08c379a000000000000000000000000000000000000000000000000000000000\n      dup2\n      mstore\n      0x04\n      add\n      tag_22\n      swap1\n      tag_23\n      jump\t// in\n    tag_22:\n      mload(0x40)\n      dup1\n      swap2\n      sub\n      swap1\n      revert\n        /* \"Errors.sol\":303:356  if(x < 10){\r... */\n    tag_21:\n        /* \"Errors.sol\":253:363  function testRevert(uint x) public pure{\r... */\n      pop\n      jump\t// out\n        /* \"Errors.sol\":391:464  function testAssert(uint x) public pure{\r... */\n    tag_13:\n        /* \"Errors.sol\":453:455  12 */\n      0x0c\n        /* \"Errors.sol\":448:449  x */\n      dup2\n        /* \"Errors.sol\":448:455  x == 12 */\n      eq\n        /* \"Errors.sol\":441:456  assert(x == 12) */\n      tag_25\n      jumpi\n      tag_26\n      tag_27\n      jump\t// in\n    tag_26:\n    tag_25:\n        /* \"Errors.sol\":391:464  function testAssert(uint x) public pure{\r... */\n      pop\n      jump\t// out\n        /* \"Errors.sol\":546:633  function customError(uint x) public view{\r... */\n    tag_16:\n        /* \"Errors.sol\":612:622  msg.sender */\n      caller\n        /* \"Errors.sol\":623:624  x */\n      dup2\n        /* \"Errors.sol\":604:625  MyError(msg.sender,x) */\n      mload(0x40)\n      0xe2399bb800000000000000000000000000000000000000000000000000000000\n      dup2\n      mstore\n      0x04\n      add\n      tag_29\n      swap3\n      swap2\n      swap1\n      tag_30\n      jump\t// in\n    tag_29:\n      mload(0x40)\n      dup1\n      swap2\n      sub\n      swap1\n      revert\n        /* \"Errors.sol\":122:207  function testRequire(uint x ) public pure{\r... */\n    tag_19:\n        /* \"Errors.sol\":187:189  10 */\n      0x0a\n        /* \"Errors.sol\":182:183  x */\n      dup2\n        /* \"Errors.sol\":182:189  x <= 10 */\n      gt\n      iszero\n        /* \"Errors.sol\":174:199  require(x <= 10 , \"x>10\") */\n      tag_32\n      jumpi\n      mload(0x40)\n      0x08c379a000000000000000000000000000000000000000000000000000000000\n      dup2\n      mstore\n      0x04\n      add\n      tag_33\n      swap1\n      tag_34\n      jump\t// in\n    tag_33:\n      mload(0x40)\n      dup1\n      swap2\n      sub\n      swap1\n      revert\n    tag_32:\n        /* \"Errors.sol\":122:207  function testRequire(uint x ) public pure{\r... */\n      pop\n      jump\t// out\n        /* \"#utility.yul\":7:146   */\n    tag_36:\n        /* \"#utility.yul\":53:58   */\n      0x00\n        /* \"#utility.yul\":91:97   */\n      dup2\n        /* \"#utility.yul\":78:98   */\n      calldataload\n        /* \"#utility.yul\":69:98   */\n      swap1\n      pop\n        /* \"#utility.yul\":107:140   */\n      tag_38\n        /* \"#utility.yul\":134:139   */\n      dup2\n        /* \"#utility.yul\":107:140   */\n      tag_39\n      jump\t// in\n    tag_38:\n        /* \"#utility.yul\":7:146   */\n      swap3\n      swap2\n      pop\n      pop\n      jump\t// out\n        /* \"#utility.yul\":152:481   */\n    tag_9:\n        /* \"#utility.yul\":211:217   */\n      0x00\n        /* \"#utility.yul\":260:262   */\n      0x20\n        /* \"#utility.yul\":248:257   */\n      dup3\n        /* \"#utility.yul\":239:246   */\n      dup5\n        /* \"#utility.yul\":235:258   */\n      sub\n        /* \"#utility.yul\":231:263   */\n      slt\n        /* \"#utility.yul\":228:347   */\n      iszero\n      tag_41\n      jumpi\n        /* \"#utility.yul\":266:345   */\n      tag_42\n      tag_43\n      jump\t// in\n    tag_42:\n        /* \"#utility.yul\":228:347   */\n    tag_41:\n        /* \"#utility.yul\":386:387   */\n      0x00\n        /* \"#utility.yul\":411:464   */\n      tag_44\n        /* \"#utility.yul\":456:463   */\n      dup5\n        /* \"#utility.yul\":447:453   */\n      dup3\n        /* \"#utility.yul\":436:445   */\n      dup6\n        /* \"#utility.yul\":432:454   */\n      add\n        /* \"#utility.yul\":411:464   */\n      tag_36\n      jump\t// in\n    tag_44:\n        /* \"#utility.yul\":401:464   */\n      swap2\n      pop\n        /* \"#utility.yul\":357:474   */\n      pop\n        /* \"#utility.yul\":152:481   */\n      swap3\n      swap2\n      pop\n      pop\n      jump\t// out\n        /* \"#utility.yul\":487:605   */\n    tag_45:\n        /* \"#utility.yul\":574:598   */\n      tag_47\n        /* \"#utility.yul\":592:597   */\n      dup2\n        /* \"#utility.yul\":574:598   */\n      tag_48\n      jump\t// in\n    tag_47:\n        /* \"#utility.yul\":569:572   */\n      dup3\n        /* \"#utility.yul\":562:599   */\n      mstore\n        /* \"#utility.yul\":487:605   */\n      pop\n      pop\n      jump\t// out\n        /* \"#utility.yul\":611:976   */\n    tag_49:\n        /* \"#utility.yul\":753:756   */\n      0x00\n        /* \"#utility.yul\":774:840   */\n      tag_51\n        /* \"#utility.yul\":838:839   */\n      0x04\n        /* \"#utility.yul\":833:836   */\n      dup4\n        /* \"#utility.yul\":774:840   */\n      tag_52\n      jump\t// in\n    tag_51:\n        /* \"#utility.yul\":767:840   */\n      swap2\n      pop\n        /* \"#utility.yul\":849:942   */\n      tag_53\n        /* \"#utility.yul\":938:941   */\n      dup3\n        /* \"#utility.yul\":849:942   */\n      tag_54\n      jump\t// in\n    tag_53:\n        /* \"#utility.yul\":967:969   */\n      0x20\n        /* \"#utility.yul\":962:965   */\n      dup3\n        /* \"#utility.yul\":958:970   */\n      add\n        /* \"#utility.yul\":951:970   */\n      swap1\n      pop\n        /* \"#utility.yul\":611:976   */\n      swap2\n      swap1\n      pop\n      jump\t// out\n        /* \"#utility.yul\":982:1347   */\n    tag_55:\n        /* \"#utility.yul\":1124:1127   */\n      0x00\n        /* \"#utility.yul\":1145:1211   */\n      tag_57\n        /* \"#utility.yul\":1209:1210   */\n      0x06\n        /* \"#utility.yul\":1204:1207   */\n      dup4\n        /* \"#utility.yul\":1145:1211   */\n      tag_52\n      jump\t// in\n    tag_57:\n        /* \"#utility.yul\":1138:1211   */\n      swap2\n      pop\n        /* \"#utility.yul\":1220:1313   */\n      tag_58\n        /* \"#utility.yul\":1309:1312   */\n      dup3\n        /* \"#utility.yul\":1220:1313   */\n      tag_59\n      jump\t// in\n    tag_58:\n        /* \"#utility.yul\":1338:1340   */\n      0x20\n        /* \"#utility.yul\":1333:1336   */\n      dup3\n        /* \"#utility.yul\":1329:1341   */\n      add\n        /* \"#utility.yul\":1322:1341   */\n      swap1\n      pop\n        /* \"#utility.yul\":982:1347   */\n      swap2\n      swap1\n      pop\n      jump\t// out\n        /* \"#utility.yul\":1353:1471   */\n    tag_60:\n        /* \"#utility.yul\":1440:1464   */\n      tag_62\n        /* \"#utility.yul\":1458:1463   */\n      dup2\n        /* \"#utility.yul\":1440:1464   */\n      tag_63\n      jump\t// in\n    tag_62:\n        /* \"#utility.yul\":1435:1438   */\n      dup3\n        /* \"#utility.yul\":1428:1465   */\n      mstore\n        /* \"#utility.yul\":1353:1471   */\n      pop\n      pop\n      jump\t// out\n        /* \"#utility.yul\":1477:1809   */\n    tag_30:\n        /* \"#utility.yul\":1598:1602   */\n      0x00\n        /* \"#utility.yul\":1636:1638   */\n      0x40\n        /* \"#utility.yul\":1625:1634   */\n      dup3\n        /* \"#utility.yul\":1621:1639   */\n      add\n        /* \"#utility.yul\":1613:1639   */\n      swap1\n      pop\n        /* \"#utility.yul\":1649:1720   */\n      tag_65\n        /* \"#utility.yul\":1717:1718   */\n      0x00\n        /* \"#utility.yul\":1706:1715   */\n      dup4\n        /* \"#utility.yul\":1702:1719   */\n      add\n        /* \"#utility.yul\":1693:1699   */\n      dup6\n        /* \"#utility.yul\":1649:1720   */\n      tag_45\n      jump\t// in\n    tag_65:\n        /* \"#utility.yul\":1730:1802   */\n      tag_66\n        /* \"#utility.yul\":1798:1800   */\n      0x20\n        /* \"#utility.yul\":1787:1796   */\n      dup4\n        /* \"#utility.yul\":1783:1801   */\n      add\n        /* \"#utility.yul\":1774:1780   */\n      dup5\n        /* \"#utility.yul\":1730:1802   */\n      tag_60\n      jump\t// in\n    tag_66:\n        /* \"#utility.yul\":1477:1809   */\n      swap4\n      swap3\n      pop\n      pop\n      pop\n      jump\t// out\n        /* \"#utility.yul\":1815:2234   */\n    tag_34:\n        /* \"#utility.yul\":1981:1985   */\n      0x00\n        /* \"#utility.yul\":2019:2021   */\n      0x20\n        /* \"#utility.yul\":2008:2017   */\n      dup3\n        /* \"#utility.yul\":2004:2022   */\n      add\n        /* \"#utility.yul\":1996:2022   */\n      swap1\n      pop\n        /* \"#utility.yul\":2068:2077   */\n      dup2\n        /* \"#utility.yul\":2062:2066   */\n      dup2\n        /* \"#utility.yul\":2058:2078   */\n      sub\n        /* \"#utility.yul\":2054:2055   */\n      0x00\n        /* \"#utility.yul\":2043:2052   */\n      dup4\n        /* \"#utility.yul\":2039:2056   */\n      add\n        /* \"#utility.yul\":2032:2079   */\n      mstore\n        /* \"#utility.yul\":2096:2227   */\n      tag_68\n        /* \"#utility.yul\":2222:2226   */\n      dup2\n        /* \"#utility.yul\":2096:2227   */\n      tag_49\n      jump\t// in\n    tag_68:\n        /* \"#utility.yul\":2088:2227   */\n      swap1\n      pop\n        /* \"#utility.yul\":1815:2234   */\n      swap2\n      swap1\n      pop\n      jump\t// out\n        /* \"#utility.yul\":2240:2659   */\n    tag_23:\n        /* \"#utility.yul\":2406:2410   */\n      0x00\n        /* \"#utility.yul\":2444:2446   */\n      0x20\n        /* \"#utility.yul\":2433:2442   */\n      dup3\n        /* \"#utility.yul\":2429:2447   */\n      add\n        /* \"#utility.yul\":2421:2447   */\n      swap1\n      pop\n        /* \"#utility.yul\":2493:2502   */\n      dup2\n        /* \"#utility.yul\":2487:2491   */\n      dup2\n        /* \"#utility.yul\":2483:2503   */\n      sub\n        /* \"#utility.yul\":2479:2480   */\n      0x00\n        /* \"#utility.yul\":2468:2477   */\n      dup4\n        /* \"#utility.yul\":2464:2481   */\n      add\n        /* \"#utility.yul\":2457:2504   */\n      mstore\n        /* \"#utility.yul\":2521:2652   */\n      tag_70\n        /* \"#utility.yul\":2647:2651   */\n      dup2\n        /* \"#utility.yul\":2521:2652   */\n      tag_55\n      jump\t// in\n    tag_70:\n        /* \"#utility.yul\":2513:2652   */\n      swap1\n      pop\n        /* \"#utility.yul\":2240:2659   */\n      swap2\n      swap1\n      pop\n      jump\t// out\n        /* \"#utility.yul\":2746:2915   */\n    tag_52:\n        /* \"#utility.yul\":2830:2841   */\n      0x00\n        /* \"#utility.yul\":2864:2870   */\n      dup3\n        /* \"#utility.yul\":2859:2862   */\n      dup3\n        /* \"#utility.yul\":2852:2871   */\n      mstore\n        /* \"#utility.yul\":2904:2908   */\n      0x20\n        /* \"#utility.yul\":2899:2902   */\n      dup3\n        /* \"#utility.yul\":2895:2909   */\n      add\n        /* \"#utility.yul\":2880:2909   */\n      swap1\n      pop\n        /* \"#utility.yul\":2746:2915   */\n      swap3\n      swap2\n      pop\n      pop\n      jump\t// out\n        /* \"#utility.yul\":2921:3017   */\n    tag_48:\n        /* \"#utility.yul\":2958:2965   */\n      0x00\n        /* \"#utility.yul\":2987:3011   */\n      tag_75\n        /* \"#utility.yul\":3005:3010   */\n      dup3\n        /* \"#utility.yul\":2987:3011   */\n      tag_76\n      jump\t// in\n    tag_75:\n        /* \"#utility.yul\":2976:3011   */\n      swap1\n      pop\n        /* \"#utility.yul\":2921:3017   */\n      swap2\n      swap1\n      pop\n      jump\t// out\n        /* \"#utility.yul\":3023:3149   */\n    tag_76:\n        /* \"#utility.yul\":3060:3067   */\n      0x00\n        /* \"#utility.yul\":3100:3142   */\n      0xffffffffffffffffffffffffffffffffffffffff\n        /* \"#utility.yul\":3093:3098   */\n      dup3\n        /* \"#utility.yul\":3089:3143   */\n      and\n        /* \"#utility.yul\":3078:3143   */\n      swap1\n      pop\n        /* \"#utility.yul\":3023:3149   */\n      swap2\n      swap1\n      pop\n      jump\t// out\n        /* \"#utility.yul\":3155:3232   */\n    tag_63:\n        /* \"#utility.yul\":3192:3199   */\n      0x00\n        /* \"#utility.yul\":3221:3226   */\n      dup2\n        /* \"#utility.yul\":3210:3226   */\n      swap1\n      pop\n        /* \"#utility.yul\":3155:3232   */\n      swap2\n      swap1\n      pop\n      jump\t// out\n        /* \"#utility.yul\":3238:3418   */\n    tag_27:\n        /* \"#utility.yul\":3286:3363   */\n      0x4e487b7100000000000000000000000000000000000000000000000000000000\n        /* \"#utility.yul\":3283:3284   */\n      0x00\n        /* \"#utility.yul\":3276:3364   */\n      mstore\n        /* \"#utility.yul\":3383:3387   */\n      0x01\n        /* \"#utility.yul\":3380:3381   */\n      0x04\n        /* \"#utility.yul\":3373:3388   */\n      mstore\n        /* \"#utility.yul\":3407:3411   */\n      0x24\n        /* \"#utility.yul\":3404:3405   */\n      0x00\n        /* \"#utility.yul\":3397:3412   */\n      revert\n        /* \"#utility.yul\":3547:3664   */\n    tag_43:\n        /* \"#utility.yul\":3656:3657   */\n      0x00\n        /* \"#utility.yul\":3653:3654   */\n      dup1\n        /* \"#utility.yul\":3646:3658   */\n      revert\n        /* \"#utility.yul\":3670:3824   */\n    tag_54:\n        /* \"#utility.yul\":3810:3816   */\n      0x783e313000000000000000000000000000000000000000000000000000000000\n        /* \"#utility.yul\":3806:3807   */\n      0x00\n        /* \"#utility.yul\":3798:3804   */\n      dup3\n        /* \"#utility.yul\":3794:3808   */\n      add\n        /* \"#utility.yul\":3787:3817   */\n      mstore\n        /* \"#utility.yul\":3670:3824   */\n      pop\n      jump\t// out\n        /* \"#utility.yul\":3830:3986   */\n    tag_59:\n        /* \"#utility.yul\":3970:3978   */\n      0x78203c2031300000000000000000000000000000000000000000000000000000\n        /* \"#utility.yul\":3966:3967   */\n      0x00\n        /* \"#utility.yul\":3958:3964   */\n      dup3\n        /* \"#utility.yul\":3954:3968   */\n      add\n        /* \"#utility.yul\":3947:3979   */\n      mstore\n        /* \"#utility.yul\":3830:3986   */\n      pop\n      jump\t// out\n        /* \"#utility.yul\":3992:4114   */\n    tag_39:\n        /* \"#utility.yul\":4065:4089   */\n      tag_86\n        /* \"#utility.yul\":4083:4088   */\n      dup2\n        /* \"#utility.yul\":4065:4089   */\n      tag_63\n      jump\t// in\n    tag_86:\n        /* \"#utility.yul\":4058:4063   */\n      dup2\n        /* \"#utility.yul\":4055:4090   */\n      eq\n        /* \"#utility.yul\":4045:4108   */\n      tag_87\n      jumpi\n        /* \"#utility.yul\":4104:4105   */\n      0x00\n        /* \"#utility.yul\":4101:4102   */\n      dup1\n        /* \"#utility.yul\":4094:4106   */\n      revert\n        /* \"#utility.yul\":4045:4108   */\n    tag_87:\n        /* \"#utility.yul\":3992:4114   */\n      pop\n      jump\t// out\n\n    auxdata: 0xa2646970667358221220b54d172081c6b5c217080333c787c8774c9a6b8d59050dadac7e960e247c7eb864736f6c63430008070033\n}\n",
				"bytecode": {
					"linkReferences": {},
					"object": "608060405234801561001057600080fd5b506103d1806100206000396000f3fe608060405234801561001057600080fd5b506004361061004c5760003560e01c80632098776714610051578063246ce3f91461006d5780632509f77c14610089578063b8bd717f146100a5575b600080fd5b61006b600480360381019061006691906101b7565b6100c1565b005b610087600480360381019061008291906101b7565b610108565b005b6100a3600480360381019061009e91906101b7565b61011c565b005b6100bf60048036038101906100ba91906101b7565b61015b565b005b600a811015610105576040517f08c379a00000000000000000000000000000000000000000000000000000000081526004016100fc90610291565b60405180910390fd5b50565b600c8114610119576101186102fe565b5b50565b33816040517fe2399bb8000000000000000000000000000000000000000000000000000000008152600401610152929190610248565b60405180910390fd5b600a81111561019f576040517f08c379a000000000000000000000000000000000000000000000000000000000815260040161019690610271565b60405180910390fd5b50565b6000813590506101b181610384565b92915050565b6000602082840312156101cd576101cc61032d565b5b60006101db848285016101a2565b91505092915050565b6101ed816102c2565b82525050565b60006102006004836102b1565b915061020b82610332565b602082019050919050565b60006102236006836102b1565b915061022e8261035b565b602082019050919050565b610242816102f4565b82525050565b600060408201905061025d60008301856101e4565b61026a6020830184610239565b9392505050565b6000602082019050818103600083015261028a816101f3565b9050919050565b600060208201905081810360008301526102aa81610216565b9050919050565b600082825260208201905092915050565b60006102cd826102d4565b9050919050565b600073ffffffffffffffffffffffffffffffffffffffff82169050919050565b6000819050919050565b7f4e487b7100000000000000000000000000000000000000000000000000000000600052600160045260246000fd5b600080fd5b7f783e313000000000000000000000000000000000000000000000000000000000600082015250565b7f78203c2031300000000000000000000000000000000000000000000000000000600082015250565b61038d816102f4565b811461039857600080fd5b5056fea2646970667358221220b54d172081c6b5c217080333c787c8774c9a6b8d59050dadac7e960e247c7eb864736f6c63430008070033",
					"opcodes": "PUSH1 0x80 PUSH1 0x40 MSTORE CALLVALUE DUP1 ISZERO PUSH2 0x10 JUMPI PUSH1 0x0 DUP1 REVERT JUMPDEST POP PUSH2 0x3D1 DUP1 PUSH2 0x20 PUSH1 0x0 CODECOPY PUSH1 0x0 RETURN INVALID PUSH1 0x80 PUSH1 0x40 MSTORE CALLVALUE DUP1 ISZERO PUSH2 0x10 JUMPI PUSH1 0x0 DUP1 REVERT JUMPDEST POP PUSH1 0x4 CALLDATASIZE LT PUSH2 0x4C JUMPI PUSH1 0x0 CALLDATALOAD PUSH1 0xE0 SHR DUP1 PUSH4 0x20987767 EQ PUSH2 0x51 JUMPI DUP1 PUSH4 0x246CE3F9 EQ PUSH2 0x6D JUMPI DUP1 PUSH4 0x2509F77C EQ PUSH2 0x89 JUMPI DUP1 PUSH4 0xB8BD717F EQ PUSH2 0xA5 JUMPI JUMPDEST PUSH1 0x0 DUP1 REVERT JUMPDEST PUSH2 0x6B PUSH1 0x4 DUP1 CALLDATASIZE SUB DUP2 ADD SWAP1 PUSH2 0x66 SWAP2 SWAP1 PUSH2 0x1B7 JUMP JUMPDEST PUSH2 0xC1 JUMP JUMPDEST STOP JUMPDEST PUSH2 0x87 PUSH1 0x4 DUP1 CALLDATASIZE SUB DUP2 ADD SWAP1 PUSH2 0x82 SWAP2 SWAP1 PUSH2 0x1B7 JUMP JUMPDEST PUSH2 0x108 JUMP JUMPDEST STOP JUMPDEST PUSH2 0xA3 PUSH1 0x4 DUP1 CALLDATASIZE SUB DUP2 ADD SWAP1 PUSH2 0x9E SWAP2 SWAP1 PUSH2 0x1B7 JUMP JUMPDEST PUSH2 0x11C JUMP JUMPDEST STOP JUMPDEST PUSH2 0xBF PUSH1 0x4 DUP1 CALLDATASIZE SUB DUP2 ADD SWAP1 PUSH2 0xBA SWAP2 SWAP1 PUSH2 0x1B7 JUMP JUMPDEST PUSH2 0x15B JUMP JUMPDEST STOP JUMPDEST PUSH1 0xA DUP2 LT ISZERO PUSH2 0x105 JUMPI PUSH1 0x40 MLOAD PUSH32 0x8C379A000000000000000000000000000000000000000000000000000000000 DUP2 MSTORE PUSH1 0x4 ADD PUSH2 0xFC SWAP1 PUSH2 0x291 JUMP JUMPDEST PUSH1 0x40 MLOAD DUP1 SWAP2 SUB SWAP1 REVERT JUMPDEST POP JUMP JUMPDEST PUSH1 0xC DUP2 EQ PUSH2 0x119 JUMPI PUSH2 0x118 PUSH2 0x2FE JUMP JUMPDEST JUMPDEST POP JUMP JUMPDEST CALLER DUP2 PUSH1 0x40 MLOAD PUSH32 0xE2399BB800000000000000000000000000000000000000000000000000000000 DUP2 MSTORE PUSH1 0x4 ADD PUSH2 0x152 SWAP3 SWAP2 SWAP1 PUSH2 0x248 JUMP JUMPDEST PUSH1 0x40 MLOAD DUP1 SWAP2 SUB SWAP1 REVERT JUMPDEST PUSH1 0xA DUP2 GT ISZERO PUSH2 0x19F JUMPI PUSH1 0x40 MLOAD PUSH32 0x8C379A000000000000000000000000000000000000000000000000000000000 DUP2 MSTORE PUSH1 0x4 ADD PUSH2 0x196 SWAP1 PUSH2 0x271 JUMP JUMPDEST PUSH1 0x40 MLOAD DUP1 SWAP2 SUB SWAP1 REVERT JUMPDEST POP JUMP JUMPDEST PUSH1 0x0 DUP2 CALLDATALOAD SWAP1 POP PUSH2 0x1B1 DUP2 PUSH2 0x384 JUMP JUMPDEST SWAP3 SWAP2 POP POP JUMP JUMPDEST PUSH1 0x0 PUSH1 0x20 DUP3 DUP5 SUB SLT ISZERO PUSH2 0x1CD JUMPI PUSH2 0x1CC PUSH2 0x32D JUMP JUMPDEST JUMPDEST PUSH1 0x0 PUSH2 0x1DB DUP5 DUP3 DUP6 ADD PUSH2 0x1A2 JUMP JUMPDEST SWAP2 POP POP SWAP3 SWAP2 POP POP JUMP JUMPDEST PUSH2 0x1ED DUP2 PUSH2 0x2C2 JUMP JUMPDEST DUP3 MSTORE POP POP JUMP JUMPDEST PUSH1 0x0 PUSH2 0x200 PUSH1 0x4 DUP4 PUSH2 0x2B1 JUMP JUMPDEST SWAP2 POP PUSH2 0x20B DUP3 PUSH2 0x332 JUMP JUMPDEST PUSH1 0x20 DUP3 ADD SWAP1 POP SWAP2 SWAP1 POP JUMP JUMPDEST PUSH1 0x0 PUSH2 0x223 PUSH1 0x6 DUP4 PUSH2 0x2B1 JUMP JUMPDEST SWAP2 POP PUSH2 0x22E DUP3 PUSH2 0x35B JUMP JUMPDEST PUSH1 0x20 DUP3 ADD SWAP1 POP SWAP2 SWAP1 POP JUMP JUMPDEST PUSH2 0x242 DUP2 PUSH2 0x2F4 JUMP JUMPDEST DUP3 MSTORE POP POP JUMP JUMPDEST PUSH1 0x0 PUSH1 0x40 DUP3 ADD SWAP1 POP PUSH2 0x25D PUSH1 0x0 DUP4 ADD DUP6 PUSH2 0x1E4 JUMP JUMPDEST PUSH2 0x26A PUSH1 0x20 DUP4 ADD DUP5 PUSH2 0x239 JUMP JUMPDEST SWAP4 SWAP3 POP POP POP JUMP JUMPDEST PUSH1 0x0 PUSH1 0x20 DUP3 ADD SWAP1 POP DUP2 DUP2 SUB PUSH1 0x0 DUP4 ADD MSTORE PUSH2 0x28A DUP2 PUSH2 0x1F3 JUMP JUMPDEST SWAP1 POP SWAP2 SWAP1 POP JUMP JUMPDEST PUSH1 0x0 PUSH1 0x20 DUP3 ADD SWAP1 POP DUP2 DUP2 SUB PUSH1 0x0 DUP4 ADD MSTORE PUSH2 0x2AA DUP2 PUSH2 0x216 JUMP JUMPDEST SWAP1 POP SWAP2 SWAP1 POP JUMP JUMPDEST PUSH1 0x0 DUP3 DUP3 MSTORE PUSH1 0x20 DUP3 ADD SWAP1 POP SWAP3 SWAP2 POP POP JUMP JUMPDEST PUSH1 0x0 PUSH2 0x2CD DUP3 PUSH2 0x2D4 JUMP JUMPDEST SWAP1 POP SWAP2 SWAP1 POP JUMP JUMPDEST PUSH1 0x0 PUSH20 0xFFFFFFFFFFFFFFFFFFFFFFFFFFFFFFFFFFFFFFFF DUP3 AND SWAP1 POP SWAP2 SWAP1 POP JUMP JUMPDEST PUSH1 0x0 DUP2 SWAP1 POP SWAP2 SWAP1 POP JUMP JUMPDEST PUSH32 0x4E487B7100000000000000000000000000000000000000000000000000000000 PUSH1 0x0 MSTORE PUSH1 0x1 PUSH1 0x4 MSTORE PUSH1 0x24 PUSH1 0x0 REVERT JUMPDEST PUSH1 0x0 DUP1 REVERT JUMPDEST PUSH32 0x783E313000000000000000000000000000000000000000000000000000000000 PUSH1 0x0 DUP3 ADD MSTORE POP JUMP JUMPDEST PUSH32 0x78203C2031300000000000000000000000000000000000000000000000000000 PUSH1 0x0 DUP3 ADD MSTORE POP JUMP JUMPDEST PUSH2 0x38D DUP2 PUSH2 0x2F4 JUMP JUMPDEST DUP2 EQ PUSH2 0x398 JUMPI PUSH1 0x0 DUP1 REVERT JUMPDEST POP JUMP INVALID LOG2 PUSH5 0x6970667358 0x22 SLT KECCAK256 0xB5 0x4D OR KECCAK256 DUP2 0xC6 0xB5 0xC2 OR ADDMOD SUB CALLER 0xC7 DUP8 0xC8 PUSH24 0x4C9A6B8D59050DADAC7E960E247C7EB864736F6C63430008 SMOD STOP CALLER "
				},
				"gasEstimates": {
					"creation": {
						"codeDepositCost": "195400",
						"executionCost": "238",
						"totalCost": "195638"
					},
					"external": {
						"customError(uint256)": "infinite",
						"testAssert(uint256)": "456",
						"testRequire(uint256)": "763",
						"testRevert(uint256)": "697"
					}
				},
				"methodIdentifiers": {
					"customError(uint256)": "2509f77c",
					"testAssert(uint256)": "246ce3f9",
					"testRequire(uint256)": "b8bd717f",
					"testRevert(uint256)": "20987767"
				}
			},
			"storageLayout": {
				"storage": [],
				"types": null
			},
			"userdoc": {
				"kind": "user",
				"methods": {},
				"version": 1
			}
		}
	}
}