{
	"Enums.sol": {
		"Enums": {
			"abi": [
				{
					"inputs": [],
					"name": "changeOrder1",
					"outputs": [],
					"stateMutability": "nonpayable",
					"type": "function"
				},
				{
					"inputs": [],
					"name": "complet",
					"outputs": [],
					"stateMutability": "nonpayable",
					"type": "function"
				},
				{
					"inputs": [],
					"name": "get",
					"outputs": [
						{
							"internalType": "enum Enums.Status",
							"name": "",
							"type": "uint8"
						}
					],
					"stateMutability": "view",
					"type": "function"
				},
				{
					"inputs": [],
					"name": "order1",
					"outputs": [
						{
							"internalType": "address",
							"name": "owner",
							"type": "address"
						},
						{
							"internalType": "enum Enums.Status",
							"name": "status",
							"type": "uint8"
						}
					],
					"stateMutability": "view",
					"type": "function"
				},
				{
					"inputs": [],
					"name": "order2",
					"outputs": [
						{
							"internalType": "address",
							"name": "owner",
							"type": "address"
						},
						{
							"internalType": "enum Enums.Status",
							"name": "status",
							"type": "uint8"
						}
					],
					"stateMutability": "view",
					"type": "function"
				},
				{
					"inputs": [
						{
							"internalType": "enum Enums.Status",
							"name": "_status",
							"type": "uint8"
						}
					],
					"name": "set",
					"outputs": [],
					"stateMutability": "nonpayable",
					"type": "function"
				},
				{
					"inputs": [],
					"name": "status",
					"outputs": [
						{
							"internalType": "enum Enums.Status",
							"name": "",
							"type": "uint8"
						}
					],
					"stateMutability": "view",
					"type": "function"
				}
			],
			"devdoc": {
				"kind": "dev",
				"methods": {},
				"version": 1
			},
			"evm": {
				"assembly": "    /* \"Enums.sol\":60:736  contract Enums{\r... */\n  mstore(0x40, 0x80)\n  callvalue\n  dup1\n  iszero\n  tag_1\n  jumpi\n  0x00\n  dup1\n  revert\ntag_1:\n  pop\n  dataSize(sub_0)\n  dup1\n  dataOffset(sub_0)\n  0x00\n  codecopy\n  0x00\n  return\nstop\n\nsub_0: assembly {\n        /* \"Enums.sol\":60:736  contract Enums{\r... */\n      mstore(0x40, 0x80)\n      callvalue\n      dup1\n      iszero\n      tag_1\n      jumpi\n      0x00\n      dup1\n      revert\n    tag_1:\n      pop\n      jumpi(tag_2, lt(calldatasize, 0x04))\n      shr(0xe0, calldataload(0x00))\n      dup1\n      0x6d4ce63c\n      gt\n      tag_10\n      jumpi\n      dup1\n      0x6d4ce63c\n      eq\n      tag_6\n      jumpi\n      dup1\n      0x8d3289d8\n      eq\n      tag_7\n      jumpi\n      dup1\n      0x9d84c736\n      eq\n      tag_8\n      jumpi\n      dup1\n      0xf59e7100\n      eq\n      tag_9\n      jumpi\n      jump(tag_2)\n    tag_10:\n      dup1\n      0x200d2ed2\n      eq\n      tag_3\n      jumpi\n      dup1\n      0x24b8ba5f\n      eq\n      tag_4\n      jumpi\n      dup1\n      0x5ed6e51f\n      eq\n      tag_5\n      jumpi\n    tag_2:\n      0x00\n      dup1\n      revert\n        /* \"Enums.sol\":211:231  Status public status */\n    tag_3:\n      tag_11\n      tag_12\n      jump\t// in\n    tag_11:\n      mload(0x40)\n      tag_13\n      swap2\n      swap1\n      tag_14\n      jump\t// in\n    tag_13:\n      mload(0x40)\n      dup1\n      swap2\n      sub\n      swap1\n      return\n        /* \"Enums.sol\":661:733  function set(Status _status) external{\r... */\n    tag_4:\n      tag_15\n      0x04\n      dup1\n      calldatasize\n      sub\n      dup2\n      add\n      swap1\n      tag_16\n      swap2\n      swap1\n      tag_17\n      jump\t// in\n    tag_16:\n      tag_18\n      jump\t// in\n    tag_15:\n      stop\n        /* \"Enums.sol\":316:335  Order public order1 */\n    tag_5:\n      tag_19\n      tag_20\n      jump\t// in\n    tag_19:\n      mload(0x40)\n      tag_21\n      swap3\n      swap2\n      swap1\n      tag_22\n      jump\t// in\n    tag_21:\n      mload(0x40)\n      dup1\n      swap2\n      sub\n      swap1\n      return\n        /* \"Enums.sol\":497:574  function get() external view returns(Status) {\r... */\n    tag_6:\n      tag_23\n      tag_24\n      jump\t// in\n    tag_23:\n      mload(0x40)\n      tag_25\n      swap2\n      swap1\n      tag_14\n      jump\t// in\n    tag_25:\n      mload(0x40)\n      dup1\n      swap2\n      sub\n      swap1\n      return\n        /* \"Enums.sol\":372:489  function changeOrder1() external{\r... */\n    tag_7:\n      tag_26\n      tag_27\n      jump\t// in\n    tag_26:\n      stop\n        /* \"Enums.sol\":582:653  function complet() external{\r... */\n    tag_8:\n      tag_28\n      tag_29\n      jump\t// in\n    tag_28:\n      stop\n        /* \"Enums.sol\":343:362  Order public order2 */\n    tag_9:\n      tag_30\n      tag_31\n      jump\t// in\n    tag_30:\n      mload(0x40)\n      tag_32\n      swap3\n      swap2\n      swap1\n      tag_22\n      jump\t// in\n    tag_32:\n      mload(0x40)\n      dup1\n      swap2\n      sub\n      swap1\n      return\n        /* \"Enums.sol\":211:231  Status public status */\n    tag_12:\n      0x00\n      dup1\n      sload\n      swap1\n      0x0100\n      exp\n      swap1\n      div\n      0xff\n      and\n      dup2\n      jump\t// out\n        /* \"Enums.sol\":661:733  function set(Status _status) external{\r... */\n    tag_18:\n        /* \"Enums.sol\":718:725  _status */\n      dup1\n        /* \"Enums.sol\":709:715  status */\n      0x00\n      dup1\n        /* \"Enums.sol\":709:725  status = _status */\n      0x0100\n      exp\n      dup2\n      sload\n      dup2\n      0xff\n      mul\n      not\n      and\n      swap1\n      dup4\n      0x03\n      dup2\n      gt\n      iszero\n      tag_34\n      jumpi\n      tag_35\n      tag_36\n      jump\t// in\n    tag_35:\n    tag_34:\n      mul\n      or\n      swap1\n      sstore\n      pop\n        /* \"Enums.sol\":661:733  function set(Status _status) external{\r... */\n      pop\n      jump\t// out\n        /* \"Enums.sol\":316:335  Order public order1 */\n    tag_20:\n      0x01\n      dup1\n      0x00\n      add\n      0x00\n      swap1\n      sload\n      swap1\n      0x0100\n      exp\n      swap1\n      div\n      0xffffffffffffffffffffffffffffffffffffffff\n      and\n      swap1\n      dup1\n      0x00\n      add\n      0x14\n      swap1\n      sload\n      swap1\n      0x0100\n      exp\n      swap1\n      div\n      0xff\n      and\n      swap1\n      pop\n      dup3\n      jump\t// out\n        /* \"Enums.sol\":497:574  function get() external view returns(Status) {\r... */\n    tag_24:\n        /* \"Enums.sol\":534:540  Status */\n      0x00\n        /* \"Enums.sol\":560:566  status */\n      dup1\n      0x00\n      swap1\n      sload\n      swap1\n      0x0100\n      exp\n      swap1\n      div\n      0xff\n      and\n        /* \"Enums.sol\":553:566  return status */\n      swap1\n      pop\n        /* \"Enums.sol\":497:574  function get() external view returns(Status) {\r... */\n      swap1\n      jump\t// out\n        /* \"Enums.sol\":372:489  function changeOrder1() external{\r... */\n    tag_27:\n        /* \"Enums.sol\":430:440  msg.sender */\n      caller\n        /* \"Enums.sol\":415:421  order1 */\n      0x01\n        /* \"Enums.sol\":415:427  order1.owner */\n      0x00\n      add\n      0x00\n        /* \"Enums.sol\":415:440  order1.owner = msg.sender */\n      0x0100\n      exp\n      dup2\n      sload\n      dup2\n      0xffffffffffffffffffffffffffffffffffffffff\n      mul\n      not\n      and\n      swap1\n      dup4\n      0xffffffffffffffffffffffffffffffffffffffff\n      and\n      mul\n      or\n      swap1\n      sstore\n      pop\n        /* \"Enums.sol\":467:481  Status.Pending */\n      0x01\n        /* \"Enums.sol\":451:457  order1 */\n      dup1\n        /* \"Enums.sol\":451:464  order1.status */\n      0x00\n      add\n      0x14\n        /* \"Enums.sol\":451:481  order1.status = Status.Pending */\n      0x0100\n      exp\n      dup2\n      sload\n      dup2\n      0xff\n      mul\n      not\n      and\n      swap1\n      dup4\n      0x03\n      dup2\n      gt\n      iszero\n      tag_39\n      jumpi\n      tag_40\n      tag_36\n      jump\t// in\n    tag_40:\n    tag_39:\n      mul\n      or\n      swap1\n      sstore\n      pop\n        /* \"Enums.sol\":372:489  function changeOrder1() external{\r... */\n      jump\t// out\n        /* \"Enums.sol\":582:653  function complet() external{\r... */\n    tag_29:\n        /* \"Enums.sol\":629:645  Status.Completed */\n      0x02\n        /* \"Enums.sol\":620:626  status */\n      0x00\n      dup1\n        /* \"Enums.sol\":620:645  status = Status.Completed */\n      0x0100\n      exp\n      dup2\n      sload\n      dup2\n      0xff\n      mul\n      not\n      and\n      swap1\n      dup4\n      0x03\n      dup2\n      gt\n      iszero\n      tag_42\n      jumpi\n      tag_43\n      tag_36\n      jump\t// in\n    tag_43:\n    tag_42:\n      mul\n      or\n      swap1\n      sstore\n      pop\n        /* \"Enums.sol\":582:653  function complet() external{\r... */\n      jump\t// out\n        /* \"Enums.sol\":343:362  Order public order2 */\n    tag_31:\n      0x02\n      dup1\n      0x00\n      add\n      0x00\n      swap1\n      sload\n      swap1\n      0x0100\n      exp\n      swap1\n      div\n      0xffffffffffffffffffffffffffffffffffffffff\n      and\n      swap1\n      dup1\n      0x00\n      add\n      0x14\n      swap1\n      sload\n      swap1\n      0x0100\n      exp\n      swap1\n      div\n      0xff\n      and\n      swap1\n      pop\n      dup3\n      jump\t// out\n        /* \"#utility.yul\":7:162   */\n    tag_45:\n        /* \"#utility.yul\":61:66   */\n      0x00\n        /* \"#utility.yul\":99:105   */\n      dup2\n        /* \"#utility.yul\":86:106   */\n      calldataload\n        /* \"#utility.yul\":77:106   */\n      swap1\n      pop\n        /* \"#utility.yul\":115:156   */\n      tag_47\n        /* \"#utility.yul\":150:155   */\n      dup2\n        /* \"#utility.yul\":115:156   */\n      tag_48\n      jump\t// in\n    tag_47:\n        /* \"#utility.yul\":7:162   */\n      swap3\n      swap2\n      pop\n      pop\n      jump\t// out\n        /* \"#utility.yul\":168:513   */\n    tag_17:\n        /* \"#utility.yul\":235:241   */\n      0x00\n        /* \"#utility.yul\":284:286   */\n      0x20\n        /* \"#utility.yul\":272:281   */\n      dup3\n        /* \"#utility.yul\":263:270   */\n      dup5\n        /* \"#utility.yul\":259:282   */\n      sub\n        /* \"#utility.yul\":255:287   */\n      slt\n        /* \"#utility.yul\":252:371   */\n      iszero\n      tag_50\n      jumpi\n        /* \"#utility.yul\":290:369   */\n      tag_51\n      tag_52\n      jump\t// in\n    tag_51:\n        /* \"#utility.yul\":252:371   */\n    tag_50:\n        /* \"#utility.yul\":410:411   */\n      0x00\n        /* \"#utility.yul\":435:496   */\n      tag_53\n        /* \"#utility.yul\":488:495   */\n      dup5\n        /* \"#utility.yul\":479:485   */\n      dup3\n        /* \"#utility.yul\":468:477   */\n      dup6\n        /* \"#utility.yul\":464:486   */\n      add\n        /* \"#utility.yul\":435:496   */\n      tag_45\n      jump\t// in\n    tag_53:\n        /* \"#utility.yul\":425:496   */\n      swap2\n      pop\n        /* \"#utility.yul\":381:506   */\n      pop\n        /* \"#utility.yul\":168:513   */\n      swap3\n      swap2\n      pop\n      pop\n      jump\t// out\n        /* \"#utility.yul\":519:637   */\n    tag_54:\n        /* \"#utility.yul\":606:630   */\n      tag_56\n        /* \"#utility.yul\":624:629   */\n      dup2\n        /* \"#utility.yul\":606:630   */\n      tag_57\n      jump\t// in\n    tag_56:\n        /* \"#utility.yul\":601:604   */\n      dup3\n        /* \"#utility.yul\":594:631   */\n      mstore\n        /* \"#utility.yul\":519:637   */\n      pop\n      pop\n      jump\t// out\n        /* \"#utility.yul\":643:786   */\n    tag_58:\n        /* \"#utility.yul\":736:779   */\n      tag_60\n        /* \"#utility.yul\":773:778   */\n      dup2\n        /* \"#utility.yul\":736:779   */\n      tag_61\n      jump\t// in\n    tag_60:\n        /* \"#utility.yul\":731:734   */\n      dup3\n        /* \"#utility.yul\":724:780   */\n      mstore\n        /* \"#utility.yul\":643:786   */\n      pop\n      pop\n      jump\t// out\n        /* \"#utility.yul\":792:1136   */\n    tag_22:\n        /* \"#utility.yul\":919:923   */\n      0x00\n        /* \"#utility.yul\":957:959   */\n      0x40\n        /* \"#utility.yul\":946:955   */\n      dup3\n        /* \"#utility.yul\":942:960   */\n      add\n        /* \"#utility.yul\":934:960   */\n      swap1\n      pop\n        /* \"#utility.yul\":970:1041   */\n      tag_63\n        /* \"#utility.yul\":1038:1039   */\n      0x00\n        /* \"#utility.yul\":1027:1036   */\n      dup4\n        /* \"#utility.yul\":1023:1040   */\n      add\n        /* \"#utility.yul\":1014:1020   */\n      dup6\n        /* \"#utility.yul\":970:1041   */\n      tag_54\n      jump\t// in\n    tag_63:\n        /* \"#utility.yul\":1051:1129   */\n      tag_64\n        /* \"#utility.yul\":1125:1127   */\n      0x20\n        /* \"#utility.yul\":1114:1123   */\n      dup4\n        /* \"#utility.yul\":1110:1128   */\n      add\n        /* \"#utility.yul\":1101:1107   */\n      dup5\n        /* \"#utility.yul\":1051:1129   */\n      tag_58\n      jump\t// in\n    tag_64:\n        /* \"#utility.yul\":792:1136   */\n      swap4\n      swap3\n      pop\n      pop\n      pop\n      jump\t// out\n        /* \"#utility.yul\":1142:1376   */\n    tag_14:\n        /* \"#utility.yul\":1241:1245   */\n      0x00\n        /* \"#utility.yul\":1279:1281   */\n      0x20\n        /* \"#utility.yul\":1268:1277   */\n      dup3\n        /* \"#utility.yul\":1264:1282   */\n      add\n        /* \"#utility.yul\":1256:1282   */\n      swap1\n      pop\n        /* \"#utility.yul\":1292:1369   */\n      tag_66\n        /* \"#utility.yul\":1366:1367   */\n      0x00\n        /* \"#utility.yul\":1355:1364   */\n      dup4\n        /* \"#utility.yul\":1351:1368   */\n      add\n        /* \"#utility.yul\":1342:1348   */\n      dup5\n        /* \"#utility.yul\":1292:1369   */\n      tag_58\n      jump\t// in\n    tag_66:\n        /* \"#utility.yul\":1142:1376   */\n      swap3\n      swap2\n      pop\n      pop\n      jump\t// out\n        /* \"#utility.yul\":1463:1559   */\n    tag_57:\n        /* \"#utility.yul\":1500:1507   */\n      0x00\n        /* \"#utility.yul\":1529:1553   */\n      tag_70\n        /* \"#utility.yul\":1547:1552   */\n      dup3\n        /* \"#utility.yul\":1529:1553   */\n      tag_71\n      jump\t// in\n    tag_70:\n        /* \"#utility.yul\":1518:1553   */\n      swap1\n      pop\n        /* \"#utility.yul\":1463:1559   */\n      swap2\n      swap1\n      pop\n      jump\t// out\n        /* \"#utility.yul\":1565:1692   */\n    tag_72:\n        /* \"#utility.yul\":1610:1617   */\n      0x00\n        /* \"#utility.yul\":1639:1644   */\n      dup2\n        /* \"#utility.yul\":1628:1644   */\n      swap1\n      pop\n        /* \"#utility.yul\":1645:1686   */\n      tag_74\n        /* \"#utility.yul\":1680:1685   */\n      dup3\n        /* \"#utility.yul\":1645:1686   */\n      tag_75\n      jump\t// in\n    tag_74:\n        /* \"#utility.yul\":1565:1692   */\n      swap2\n      swap1\n      pop\n      jump\t// out\n        /* \"#utility.yul\":1698:1824   */\n    tag_71:\n        /* \"#utility.yul\":1735:1742   */\n      0x00\n        /* \"#utility.yul\":1775:1817   */\n      0xffffffffffffffffffffffffffffffffffffffff\n        /* \"#utility.yul\":1768:1773   */\n      dup3\n        /* \"#utility.yul\":1764:1818   */\n      and\n        /* \"#utility.yul\":1753:1818   */\n      swap1\n      pop\n        /* \"#utility.yul\":1698:1824   */\n      swap2\n      swap1\n      pop\n      jump\t// out\n        /* \"#utility.yul\":1830:1957   */\n    tag_61:\n        /* \"#utility.yul\":1886:1895   */\n      0x00\n        /* \"#utility.yul\":1919:1951   */\n      tag_78\n        /* \"#utility.yul\":1945:1950   */\n      dup3\n        /* \"#utility.yul\":1919:1951   */\n      tag_72\n      jump\t// in\n    tag_78:\n        /* \"#utility.yul\":1906:1951   */\n      swap1\n      pop\n        /* \"#utility.yul\":1830:1957   */\n      swap2\n      swap1\n      pop\n      jump\t// out\n        /* \"#utility.yul\":1963:2143   */\n    tag_36:\n        /* \"#utility.yul\":2011:2088   */\n      0x4e487b7100000000000000000000000000000000000000000000000000000000\n        /* \"#utility.yul\":2008:2009   */\n      0x00\n        /* \"#utility.yul\":2001:2089   */\n      mstore\n        /* \"#utility.yul\":2108:2112   */\n      0x21\n        /* \"#utility.yul\":2105:2106   */\n      0x04\n        /* \"#utility.yul\":2098:2113   */\n      mstore\n        /* \"#utility.yul\":2132:2136   */\n      0x24\n        /* \"#utility.yul\":2129:2130   */\n      0x00\n        /* \"#utility.yul\":2122:2137   */\n      revert\n        /* \"#utility.yul\":2272:2389   */\n    tag_52:\n        /* \"#utility.yul\":2381:2382   */\n      0x00\n        /* \"#utility.yul\":2378:2379   */\n      dup1\n        /* \"#utility.yul\":2371:2383   */\n      revert\n        /* \"#utility.yul\":2395:2508   */\n    tag_75:\n        /* \"#utility.yul\":2476:2477   */\n      0x04\n        /* \"#utility.yul\":2469:2474   */\n      dup2\n        /* \"#utility.yul\":2466:2478   */\n      lt\n        /* \"#utility.yul\":2456:2502   */\n      tag_84\n      jumpi\n        /* \"#utility.yul\":2482:2500   */\n      tag_85\n      tag_36\n      jump\t// in\n    tag_85:\n        /* \"#utility.yul\":2456:2502   */\n    tag_84:\n        /* \"#utility.yul\":2395:2508   */\n      pop\n      jump\t// out\n        /* \"#utility.yul\":2514:2621   */\n    tag_48:\n        /* \"#utility.yul\":2595:2596   */\n      0x04\n        /* \"#utility.yul\":2588:2593   */\n      dup2\n        /* \"#utility.yul\":2585:2597   */\n      lt\n        /* \"#utility.yul\":2575:2615   */\n      tag_87\n      jumpi\n        /* \"#utility.yul\":2611:2612   */\n      0x00\n        /* \"#utility.yul\":2608:2609   */\n      dup1\n        /* \"#utility.yul\":2601:2613   */\n      revert\n        /* \"#utility.yul\":2575:2615   */\n    tag_87:\n        /* \"#utility.yul\":2514:2621   */\n      pop\n      jump\t// out\n\n    auxdata: 0xa26469706673582212201ac2b799b62a3817b9153eb279fa92bd2565f506324cc2235e9878fd6624a22d64736f6c63430008070033\n}\n",
				"bytecode": {
					"linkReferences": {},
					"object": "608060405234801561001057600080fd5b50610425806100206000396000f3fe608060405234801561001057600080fd5b506004361061007d5760003560e01c80636d4ce63c1161005b5780636d4ce63c146100db5780638d3289d8146100f95780639d84c73614610103578063f59e71001461010d5761007d565b8063200d2ed21461008257806324b8ba5f146100a05780635ed6e51f146100bc575b600080fd5b61008a61012c565b6040516100979190610325565b60405180910390f35b6100ba60048036038101906100b591906102b1565b61013d565b005b6100c4610169565b6040516100d29291906102fc565b60405180910390f35b6100e36101a8565b6040516100f09190610325565b60405180910390f35b6101016101be565b005b61010b610231565b005b61011561025d565b6040516101239291906102fc565b60405180910390f35b60008054906101000a900460ff1681565b806000806101000a81548160ff0219169083600381111561016157610160610397565b5b021790555050565b60018060000160009054906101000a900473ffffffffffffffffffffffffffffffffffffffff16908060000160149054906101000a900460ff16905082565b60008060009054906101000a900460ff16905090565b33600160000160006101000a81548173ffffffffffffffffffffffffffffffffffffffff021916908373ffffffffffffffffffffffffffffffffffffffff16021790555060018060000160146101000a81548160ff0219169083600381111561022a57610229610397565b5b0217905550565b60026000806101000a81548160ff0219169083600381111561025657610255610397565b5b0217905550565b60028060000160009054906101000a900473ffffffffffffffffffffffffffffffffffffffff16908060000160149054906101000a900460ff16905082565b6000813590506102ab816103df565b92915050565b6000602082840312156102c7576102c66103c6565b5b60006102d58482850161029c565b91505092915050565b6102e781610340565b82525050565b6102f681610385565b82525050565b600060408201905061031160008301856102de565b61031e60208301846102ed565b9392505050565b600060208201905061033a60008301846102ed565b92915050565b600061034b82610365565b9050919050565b6000819050610360826103cb565b919050565b600073ffffffffffffffffffffffffffffffffffffffff82169050919050565b600061039082610352565b9050919050565b7f4e487b7100000000000000000000000000000000000000000000000000000000600052602160045260246000fd5b600080fd5b600481106103dc576103db610397565b5b50565b600481106103ec57600080fd5b5056fea26469706673582212201ac2b799b62a3817b9153eb279fa92bd2565f506324cc2235e9878fd6624a22d64736f6c63430008070033",
					"opcodes": "PUSH1 0x80 PUSH1 0x40 MSTORE CALLVALUE DUP1 ISZERO PUSH2 0x10 JUMPI PUSH1 0x0 DUP1 REVERT JUMPDEST POP PUSH2 0x425 DUP1 PUSH2 0x20 PUSH1 0x0 CODECOPY PUSH1 0x0 RETURN INVALID PUSH1 0x80 PUSH1 0x40 MSTORE CALLVALUE DUP1 ISZERO PUSH2 0x10 JUMPI PUSH1 0x0 DUP1 REVERT JUMPDEST POP PUSH1 0x4 CALLDATASIZE LT PUSH2 0x7D JUMPI PUSH1 0x0 CALLDATALOAD PUSH1 0xE0 SHR DUP1 PUSH4 0x6D4CE63C GT PUSH2 0x5B JUMPI DUP1 PUSH4 0x6D4CE63C EQ PUSH2 0xDB JUMPI DUP1 PUSH4 0x8D3289D8 EQ PUSH2 0xF9 JUMPI DUP1 PUSH4 0x9D84C736 EQ PUSH2 0x103 JUMPI DUP1 PUSH4 0xF59E7100 EQ PUSH2 0x10D JUMPI PUSH2 0x7D JUMP JUMPDEST DUP1 PUSH4 0x200D2ED2 EQ PUSH2 0x82 JUMPI DUP1 PUSH4 0x24B8BA5F EQ PUSH2 0xA0 JUMPI DUP1 PUSH4 0x5ED6E51F EQ PUSH2 0xBC JUMPI JUMPDEST PUSH1 0x0 DUP1 REVERT JUMPDEST PUSH2 0x8A PUSH2 0x12C JUMP JUMPDEST PUSH1 0x40 MLOAD PUSH2 0x97 SWAP2 SWAP1 PUSH2 0x325 JUMP JUMPDEST PUSH1 0x40 MLOAD DUP1 SWAP2 SUB SWAP1 RETURN JUMPDEST PUSH2 0xBA PUSH1 0x4 DUP1 CALLDATASIZE SUB DUP2 ADD SWAP1 PUSH2 0xB5 SWAP2 SWAP1 PUSH2 0x2B1 JUMP JUMPDEST PUSH2 0x13D JUMP JUMPDEST STOP JUMPDEST PUSH2 0xC4 PUSH2 0x169 JUMP JUMPDEST PUSH1 0x40 MLOAD PUSH2 0xD2 SWAP3 SWAP2 SWAP1 PUSH2 0x2FC JUMP JUMPDEST PUSH1 0x40 MLOAD DUP1 SWAP2 SUB SWAP1 RETURN JUMPDEST PUSH2 0xE3 PUSH2 0x1A8 JUMP JUMPDEST PUSH1 0x40 MLOAD PUSH2 0xF0 SWAP2 SWAP1 PUSH2 0x325 JUMP JUMPDEST PUSH1 0x40 MLOAD DUP1 SWAP2 SUB SWAP1 RETURN JUMPDEST PUSH2 0x101 PUSH2 0x1BE JUMP JUMPDEST STOP JUMPDEST PUSH2 0x10B PUSH2 0x231 JUMP JUMPDEST STOP JUMPDEST PUSH2 0x115 PUSH2 0x25D JUMP JUMPDEST PUSH1 0x40 MLOAD PUSH2 0x123 SWAP3 SWAP2 SWAP1 PUSH2 0x2FC JUMP JUMPDEST PUSH1 0x40 MLOAD DUP1 SWAP2 SUB SWAP1 RETURN JUMPDEST PUSH1 0x0 DUP1 SLOAD SWAP1 PUSH2 0x100 EXP SWAP1 DIV PUSH1 0xFF AND DUP2 JUMP JUMPDEST DUP1 PUSH1 0x0 DUP1 PUSH2 0x100 EXP DUP2 SLOAD DUP2 PUSH1 0xFF MUL NOT AND SWAP1 DUP4 PUSH1 0x3 DUP2 GT ISZERO PUSH2 0x161 JUMPI PUSH2 0x160 PUSH2 0x397 JUMP JUMPDEST JUMPDEST MUL OR SWAP1 SSTORE POP POP JUMP JUMPDEST PUSH1 0x1 DUP1 PUSH1 0x0 ADD PUSH1 0x0 SWAP1 SLOAD SWAP1 PUSH2 0x100 EXP SWAP1 DIV PUSH20 0xFFFFFFFFFFFFFFFFFFFFFFFFFFFFFFFFFFFFFFFF AND SWAP1 DUP1 PUSH1 0x0 ADD PUSH1 0x14 SWAP1 SLOAD SWAP1 PUSH2 0x100 EXP SWAP1 DIV PUSH1 0xFF AND SWAP1 POP DUP3 JUMP JUMPDEST PUSH1 0x0 DUP1 PUSH1 0x0 SWAP1 SLOAD SWAP1 PUSH2 0x100 EXP SWAP1 DIV PUSH1 0xFF AND SWAP1 POP SWAP1 JUMP JUMPDEST CALLER PUSH1 0x1 PUSH1 0x0 ADD PUSH1 0x0 PUSH2 0x100 EXP DUP2 SLOAD DUP2 PUSH20 0xFFFFFFFFFFFFFFFFFFFFFFFFFFFFFFFFFFFFFFFF MUL NOT AND SWAP1 DUP4 PUSH20 0xFFFFFFFFFFFFFFFFFFFFFFFFFFFFFFFFFFFFFFFF AND MUL OR SWAP1 SSTORE POP PUSH1 0x1 DUP1 PUSH1 0x0 ADD PUSH1 0x14 PUSH2 0x100 EXP DUP2 SLOAD DUP2 PUSH1 0xFF MUL NOT AND SWAP1 DUP4 PUSH1 0x3 DUP2 GT ISZERO PUSH2 0x22A JUMPI PUSH2 0x229 PUSH2 0x397 JUMP JUMPDEST JUMPDEST MUL OR SWAP1 SSTORE POP JUMP JUMPDEST PUSH1 0x2 PUSH1 0x0 DUP1 PUSH2 0x100 EXP DUP2 SLOAD DUP2 PUSH1 0xFF MUL NOT AND SWAP1 DUP4 PUSH1 0x3 DUP2 GT ISZERO PUSH2 0x256 JUMPI PUSH2 0x255 PUSH2 0x397 JUMP JUMPDEST JUMPDEST MUL OR SWAP1 SSTORE POP JUMP JUMPDEST PUSH1 0x2 DUP1 PUSH1 0x0 ADD PUSH1 0x0 SWAP1 SLOAD SWAP1 PUSH2 0x100 EXP SWAP1 DIV PUSH20 0xFFFFFFFFFFFFFFFFFFFFFFFFFFFFFFFFFFFFFFFF AND SWAP1 DUP1 PUSH1 0x0 ADD PUSH1 0x14 SWAP1 SLOAD SWAP1 PUSH2 0x100 EXP SWAP1 DIV PUSH1 0xFF AND SWAP1 POP DUP3 JUMP JUMPDEST PUSH1 0x0 DUP2 CALLDATALOAD SWAP1 POP PUSH2 0x2AB DUP2 PUSH2 0x3DF JUMP JUMPDEST SWAP3 SWAP2 POP POP JUMP JUMPDEST PUSH1 0x0 PUSH1 0x20 DUP3 DUP5 SUB SLT ISZERO PUSH2 0x2C7 JUMPI PUSH2 0x2C6 PUSH2 0x3C6 JUMP JUMPDEST JUMPDEST PUSH1 0x0 PUSH2 0x2D5 DUP5 DUP3 DUP6 ADD PUSH2 0x29C JUMP JUMPDEST SWAP2 POP POP SWAP3 SWAP2 POP POP JUMP JUMPDEST PUSH2 0x2E7 DUP2 PUSH2 0x340 JUMP JUMPDEST DUP3 MSTORE POP POP JUMP JUMPDEST PUSH2 0x2F6 DUP2 PUSH2 0x385 JUMP JUMPDEST DUP3 MSTORE POP POP JUMP JUMPDEST PUSH1 0x0 PUSH1 0x40 DUP3 ADD SWAP1 POP PUSH2 0x311 PUSH1 0x0 DUP4 ADD DUP6 PUSH2 0x2DE JUMP JUMPDEST PUSH2 0x31E PUSH1 0x20 DUP4 ADD DUP5 PUSH2 0x2ED JUMP JUMPDEST SWAP4 SWAP3 POP POP POP JUMP JUMPDEST PUSH1 0x0 PUSH1 0x20 DUP3 ADD SWAP1 POP PUSH2 0x33A PUSH1 0x0 DUP4 ADD DUP5 PUSH2 0x2ED JUMP JUMPDEST SWAP3 SWAP2 POP POP JUMP JUMPDEST PUSH1 0x0 PUSH2 0x34B DUP3 PUSH2 0x365 JUMP JUMPDEST SWAP1 POP SWAP2 SWAP1 POP JUMP JUMPDEST PUSH1 0x0 DUP2 SWAP1 POP PUSH2 0x360 DUP3 PUSH2 0x3CB JUMP JUMPDEST SWAP2 SWAP1 POP JUMP JUMPDEST PUSH1 0x0 PUSH20 0xFFFFFFFFFFFFFFFFFFFFFFFFFFFFFFFFFFFFFFFF DUP3 AND SWAP1 POP SWAP2 SWAP1 POP JUMP JUMPDEST PUSH1 0x0 PUSH2 0x390 DUP3 PUSH2 0x352 JUMP JUMPDEST SWAP1 POP SWAP2 SWAP1 POP JUMP JUMPDEST PUSH32 0x4E487B7100000000000000000000000000000000000000000000000000000000 PUSH1 0x0 MSTORE PUSH1 0x21 PUSH1 0x4 MSTORE PUSH1 0x24 PUSH1 0x0 REVERT JUMPDEST PUSH1 0x0 DUP1 REVERT JUMPDEST PUSH1 0x4 DUP2 LT PUSH2 0x3DC JUMPI PUSH2 0x3DB PUSH2 0x397 JUMP JUMPDEST JUMPDEST POP JUMP JUMPDEST PUSH1 0x4 DUP2 LT PUSH2 0x3EC JUMPI PUSH1 0x0 DUP1 REVERT JUMPDEST POP JUMP INVALID LOG2 PUSH5 0x6970667358 0x22 SLT KECCAK256 BYTE 0xC2 0xB7 SWAP10 0xB6 0x2A CODESIZE OR 0xB9 ISZERO RETURNDATACOPY 0xB2 PUSH26 0xFA92BD2565F506324CC2235E9878FD6624A22D64736F6C634300 ADDMOD SMOD STOP CALLER "
				},
				"gasEstimates": {
					"creation": {
						"codeDepositCost": "212200",
						"executionCost": "257",
						"totalCost": "212457"
					},
					"external": {
						"changeOrder1()": "48781",
						"complet()": "24475",
						"get()": "2568",
						"order1()": "4966",
						"order2()": "4987",
						"set(uint8)": "24673",
						"status()": "2558"
					}
				},
				"methodIdentifiers": {
					"changeOrder1()": "8d3289d8",
					"complet()": "9d84c736",
					"get()": "6d4ce63c",
					"order1()": "5ed6e51f",
					"order2()": "f59e7100",
					"set(uint8)": "24b8ba5f",
					"status()": "200d2ed2"
				}
			},
			"storageLayout": {
				"storage": [
					{
						"astId": 9,
						"contract": "Enums.sol:Enums",
						"label": "status",
						"offset": 0,
						"slot": "0",
						"type": "t_enum(Status)6"
					},
					{
						"astId": 18,
						"contract": "Enums.sol:Enums",
						"label": "order1",
						"offset": 0,
						"slot": "1",
						"type": "t_struct(Order)15_storage"
					},
					{
						"astId": 21,
						"contract": "Enums.sol:Enums",
						"label": "order2",
						"offset": 0,
						"slot": "2",
						"type": "t_struct(Order)15_storage"
					}
				],
				"types": {
					"t_address": {
						"encoding": "inplace",
						"label": "address",
						"numberOfBytes": "20"
					},
					"t_enum(Status)6": {
						"encoding": "inplace",
						"label": "enum Enums.Status",
						"numberOfBytes": "1"
					},
					"t_struct(Order)15_storage": {
						"encoding": "inplace",
						"label": "struct Enums.Order",
						"members": [
							{
								"astId": 11,
								"contract": "Enums.sol:Enums",
								"label": "owner",
								"offset": 0,
								"slot": "0",
								"type": "t_address"
							},
							{
								"astId": 14,
								"contract": "Enums.sol:Enums",
								"label": "status",
								"offset": 20,
								"slot": "0",
								"type": "t_enum(Status)6"
							}
						],
						"numberOfBytes": "32"
					}
				}
			},
			"userdoc": {
				"kind": "user",
				"methods": {},
				"version": 1
			}
		}
	}
}